:1000000000240020ED2A0000E1740000C12A000055
:10001000C12A0000C12A0000C12A0000000000001F
:10002000000000000000000000000000C5260000E5
:10003000C12A0000000000005D260000C12A000067
:100040008527000085270000852700008527000000
:1000500085270000852700008527000085270000F0
:1000600085270000852700008527000085270000E0
:1000700085270000852700008527000085270000D0
:1000800085270000852700008527000085270000C0
:1000900085270000852700008527000085270000B0
:1000A00085270000852700008527000085270000A0
:1000B0008527000085270000852700008527000090
:1000C0008527000085270000852700008527000080
:1000D0008527000085270000852700008527000070
:1000E0008527000085270000852700008527000060
:1000F0008527000085270000852700008527000050
:1001000053B94AB9002908BF00281CBF4FF0FF317E
:100110004FF0FF3000F00CB8ADF1080C6DE904CEE3
:1001200000F008F8DDF804E0DDE9022304B07047D0
:10013000704700BF2DE9F04786468C460846089E6A
:10014000154674461946002B40F0C2808542B2FA2B
:1001500082F245D94AB1C2F1200300FA02FC2EFA1C
:1001600003F3954043EA0C0C94404FEA154EA8B2B5
:10017000BCFBFEF8230C0EFB18CC08FB00F943EA8D
:100180000C43994528D9EB1808F1FF3704D299455B
:1001900002D9A8F102072B44A3EB0903A4B2B3FBD5
:1001A000FEFC0EFB1C330CFB00F044EA0344A042AF
:1001B00014D92C190CF1FF3304D2A04202D9ACF1AE
:1001C00002032C44241A43EA07401EB1D440002302
:1001D00034607360BDE8F0874746DDE76346F1E7CA
:1001E00092BB431B01214FEA154EAFB2B3FBFEFC9D
:1001F000200C0EFB1C330CFB07F840EA0343984528
:1002000062D9EB180CF1FF3004D2984502D9ACF159
:1002100002002B44A3EB0803A4B2B3FBFEFC0EFBCD
:100220001C330CFB07F744EA0344A7424ED92C19B0
:100230000CF1FF3304D2A74202D9ACF102032C44E3
:10024000E41B43EA0040C0E7C2F1200320FA03F1B7
:10025000954090402EFA03F303434FEA154EAFB298
:10026000B1FBFEFC0EFB1C10190C0CFB07F841EA5D
:100270000041884504FA02F422D969180CF1FF30D4
:1002800004D2884502D9ACF102002944A1EB08014F
:100290009BB2B1FBFEFC0EFB1C110CFB07F743EA03
:1002A00001439F420ED9EB180CF1FF3104D29F425B
:1002B00002D9ACF102012B44DB1B41EA004192E779
:1002C0006046E3E76146F7E76046A3E76346B7E7C2
:1002D000834206D916B9002108467BE7C6E900E04B
:1002E000F9E7B3FA83F78FB9834201D3724508D88F
:1002F000BEEB020460EB030301209C461EB9002103
:1003000068E73846FAE7C6E9004CF8E7C7F1200C81
:10031000BB4022FA0CF41C432EFA0CF120FA0CF329
:10032000B84001434FEA14490EFA07F5B3FBF9F858
:100330001FFA84FE09FB18300B0C08FB0EFA43EA87
:1003400000439A4502FA07F240D9E31808F1FF305A
:1003500004D29A4502D9A8F102002344A3EB0A0370
:1003600089B2B3FBF9F809FB183308FB0EFE41EA2A
:1003700003418E452CD9611808F1FF3304D28E4514
:1003800002D9A8F10203214443EA0040A0FB0298ED
:10039000A1EB0E014145CE46434602D306D14D4561
:1003A00004D2B9EB020E68EB04030138002EA6D08C
:1003B000B5EB0E0261EB030101FA0CFC22FA07F324
:1003C0004CEA0303F940C6E9003198E74046C5E727
:1003D0004346D9E710F8012B11F8013B012A28BF49
:1003E0009A42F7D0D01A7047034611F8012B03F850
:1003F000012B002AF9D17047034613F8012B002A7C
:10040000FBD1181A0138704707B5054B00935368A4
:10041000044A082106F0CDFC002003B05DF804FB7F
:100420007C090020D08D000073B5966805463046E3
:100430001446FFF7E1FF052808D063680A4A012146
:10044000284606F0B6FC002002B070BD074B3146CE
:100450000622184607F085FF00906368044A0821C9
:10046000284606F0A6FCEEE7DB8D00007C090020A4
:10047000D08D000010B5044600214FF4803005F007
:10048000CFF92046024A082106F093FC002010BD57
:10049000F68D000010B5044600214FF4004005F031
:1004A000BFF92046024A082106F083FC002010BD57
:1004B000008E00002DE9F04107460E46154600F07B
:1004C0008FF8C36804461BB943691A78002A41D1E2
:1004D0000023E3606368BB4256F8232008DB324BFD
:1004E0006361204600F062F84FF0FF30BDE8F08114
:1004F000511C616192F80080B8F12D0FEFD1911C71
:1005000061615178A1602D2904D192786AB90133D3
:100510006360E4E749B9244B63614146284607F02C
:100520004CFF0028DDD0C4F80880D4F808802846A5
:10053000414607F042FFB8F13A0F636900D070B945
:100540001B7813B9636801336360204600F02EF80E
:100550003F20CBE75A1C42611B788360E5E7427875
:100560003A2A0BD0002222611B7813B96368013349
:100570006360204600F01AF8A068B7E71878626850
:10058000094928B901329742626004DD56F82230E9
:10059000C4E90431EAE761612D783A2D2046D5D1CE
:1005A00000F004F82846A1E7A58F0000074B026879
:1005B0001A60074B42681A60064B82681A60064B45
:1005C000C2681A60054B02691A6070471C0000205F
:1005D00018000020C0040020BC040020B804002043
:1005E0000048704700000020014B1B68184700BFFF
:1005F00020000020014B1860704700BF2000002041
:1006000030B585B004460D4610220021684607F03B
:1006100069FF02238DF802302A46044B01932146DC
:10062000684605F061FE05B030BD00BFE905000079
:1006300080B505460E461746984605F00BF9034669
:1006400007F060FFDFF81890044649F80030424692
:1006500030463946A84754F8090002F0CFFA00BFE7
:10066000080000002DE9F047058B04462807904656
:1006700011D4022905F0070540F0CD80204606F090
:10068000F4F878B10138218B042811D8DFE800F0A4
:10069000C3106D85950001290CBF45F0100545F08C
:1006A0002005258388F31188BFF36F8FBDE8F0879D
:1006B00001F0070AAA4500F0A6800027B9463E4689
:1006C000A368002B00F0BD8041F00801218388F36E
:1006D0001188BFF36F8FA168002900F0BB800D68FF
:1006E000002900F0B780D1F80480334652462046F6
:1006F000C047002D76D02B6829461D46F0E701F053
:1007000007035A1F012A1BD8002221F00701062BDC
:10071000276889B2C4E9002209D13B4603E0628B15
:10072000013262831B68002BF9D141F00201218361
:10073000204606F09AF800287BD041F0200177E0AF
:10074000042B0AD121F0070189B22183204606F04B
:100750008CF810B141F020012183218B01F0070AB0
:10076000AA4550D00027B946AAE7236921F007011E
:1007700041F00601062DD3F8009021832DD1B9F167
:10078000000F40D041F00801218388F31188BFF3A6
:100790006F8F3A492046C84729E021F007012369B5
:1007A00041F0040189B2042DD3F804902183E6D0EE
:1007B00000273E464FF0040A82E721F00701236933
:1007C00041F0050189B2052DD3F808902183D6D0D8
:1007D00000273E464FF0050A72E700273E464FF0DD
:1007E000060A6DE72B4687E7B9F1000FD1D14FF02C
:1007F0002003EFF3118883F31288BFF36F8F238BED
:1008000023F008032383258BEA062ED525F0100359
:10081000238305F007056669218B002EBFF66FAFB5
:1008200000232768C4E9003321F0070141F00101EA
:100830002183218B01F0070AAA454FF000097FF4BC
:100840003FAF002F9BD041F00801218388F311882E
:10085000BFF36F8F002FC7D03D68394633465246ED
:10086000204606F02EF82F46F4E7AB067FF51AAFC8
:1008700025F02003238305F00705FFE6EF6800005D
:1008800008B504464FF02002EFF3118382F312887B
:10089000BFF36F8F03F044FB204602F059F9034881
:1008A00005F06DFF01F03CFEFCE700BF768E000016
:1008B00003F056BB13B5044604F0E6FBC0F3072370
:1008C0000193C0F307430093044A030E0821204616
:1008D00006F06FFA002002B010BD00BF9F8E00002E
:1008E00038B5044607F090FB4FF47A75A0FB05235A
:1008F00005FB0133D20B42EA43432046024A08215A
:1009000006F057FA002038BDB88E000010B5044636
:1009100003F0FCFA084A03460821204606F049FA8B
:10092000064A2046082106F044FA0548214604F00C
:100930001DFA002010BD00BFC78E0000E68E00002B
:100940004509000070B58EB004460D46D0F89C6095
:1009500007F000FA024607F0D5FD254B1958254B44
:10096000002A18BF1346CDE90043234A234B2846EB
:100970008C4218BF1346224A082106F01AFAD4E91D
:100980000A23CDE9022394F90E300093237B1D4AFC
:100990002846082106F00DFA06A92022204604F078
:1009A0002DFA626E00920346174A0821284606F087
:1009B00000FA05A9204607F0DDF9034630B1134AD5
:1009C0000821284606F0F5F90EB070BD059A64239B
:1009D000B11ACDE900214B430D4AB3FBF6F30821D0
:1009E000CDE902632846334606F0E3F9ECE700BFA1
:1009F00008000000F08E00008B960000929D000021
:100A0000F38E0000FF8E00002B8F0000428F00004D
:100A10006F8F0000F0B5002593B0044629460AAF59
:100A20001C220BA807F05EFD144E1A222021384626
:100A300007F058FD2146124804F098F909AA4FF42E
:100A40000061304607F08AF909996422C1F5006017
:100A500042434FF40063D20ACDE90403CDE90231E9
:100A600006922046CDE90057064AA6F14003082128
:100A700006F09FF9284613B0F0BD00BF8016002095
:100A8000F90A0000A68F000010B5044606F0CCFF5E
:100A9000034A03460821204606F08BF9002010BDCA
:100AA000EF8F000073B5134600220192044601AA9D
:100AB00058680A2101F0DCF9019D95B920EAE0743B
:100AC0004FF40046294640F2E7304FF47A72002393
:100AD000C4FB0601FFF714FB04F0A2FE284602B097
:100AE00070BD2B46034A0121204606F062F9019DA4
:100AF000F4E700BF05900000F0B50446D0F89C6014
:100B000089B00D4607A907F035F9034630B1104A00
:100B10000821284606F04DF909B0F0BD204607F03F
:100B200019F90C4F079A002818BF0746B11A642319
:100B3000CDE902214B43CDE90076B3FBF6F3064A3B
:100B4000CDE9046308212346284606F032F9E3E79D
:100B5000428F0000F08E0000259000002DE9F04348
:100B600087B00546684603F0D7FF009E184A194F24
:100B7000DFF86480DFF86490142303FB006608212B
:100B8000284606F016F9009CB44203D3002007B0B3
:100B9000BDE8F08323680BB11A7832B923463A4690
:100BA000142101A805F0A0FA01AB4246082128460D
:100BB00006F0FFF8204607F0B8F8094B094A00286C
:100BC00008BF4B460821284606F0F3F81434DBE74B
:100BD0004C910000569100005B9100004391000091
:100BE0003D910000609100008B1E022B2DE9F04129
:100BF00007468846144637D860681022002105F061
:100C00000FFBB8F1020F064607D1264A2023082120
:100C1000384606F0CEF8336816E00A220021A068B4
:100C200005F0FEFAC5B21F4A2B460821384606F0E9
:100C3000C0F8B8F1040F1AD0102D0DD0202DEAD035
:100C4000082D0CD13378DBB2174A0821384606F05C
:100C5000B0F80020BDE8F08133889BB2F4E7134A76
:100C60000821384606F0A5F86FF01500F2E7E068B5
:100C70001022002105F0D4FA0D4A0346044608214B
:100C8000384606F096F8102D06D0202D07D0082DF6
:100C9000E5D1E4B23470DCE7A4B23480D9E7346043
:100CA000D7E700BF9B910000C6910000B091000003
:100CB000D79100002DE9F04F584BDFF864A1914621
:100CC0004FF0FF35012285B0074688461A6020267E
:100CD0002C46494652464046FFF7ECFB411C07D1E3
:100CE0006A1C52D14F4A0121384606F062F81DE0D5
:100CF000732820D0772833D0612817D1DFF828B1A6
:100D00001022DBF80000002105F08AFA05460028D1
:100D1000DFD107F0F7FB454B1B58162BD9D1DBF879
:100D20000030434A0121384606F043F86FF01500C1
:100D300005B0BDE8F08FDFF8F0B00022DBF800006E
:100D4000114605F06DFA04460028C2D107F0DAFB1F
:100D5000364B1B58162BBCD1DBF80030354AE1E787
:100D6000DFF8C4B00022DBF80000114605F058FAA5
:100D700006460028ADD107F0C5FB2C4B1B58162B9F
:100D8000A7D1DBF800302C4ACCE7631C01D12B4AF9
:100D9000A9E75FFA86F8C6F3C406002C3CD06B4680
:100DA00029461A46A6EB050C0CE0B8F1100F1DD031
:100DB000B8F1200F20D0B8F1080F2AD108781870A8
:100DC00031443344A64203D80CEB01001028ECD97F
:100DD000102CA14628BF4FF0100929464B46384633
:100DE00000F03AFE1035A4EB0904D6E7088880B27B
:100DF0001870000A5870E3E7086818704FEA102E60
:100E000083F801E04FEA104E000E83F802E0D8703C
:100E1000D6E70B4A082167E7204689E7180000203B
:100E2000259200002C920000B80400200C00000065
:100E3000EB910000FE910000119200004992000029
:100E4000B091000070B5104E044633780D4681B164
:100E50002BB1BDE870400D4A012105F0AABF012366
:100E600033700B4A0821204605F0A3FF012333709D
:100E700004E083F001033370002BF2D129462046B1
:100E8000BDE8704005F0BABF8209002063920000FF
:100E90009E92000070B504463C480378182B02D19E
:100EA0000B78112B31D0013A0B468D18AB4225D16E
:100EB0008B5C0A780370A2F13003092B344C04D9FF
:100EC00022F02003413B052B04D823683149CA5442
:100ED000013323602368022B34D110222D480021D6
:100EE00005F09EF92C4A136803F8010B13602B4A96
:100EF0001368013313600023236023E013F8016BB0
:100F0000182ED3D11E78112ED0D1244D244A2B680F
:100F10000821204605F04DFF20460021FFF792FFF3
:100F2000204B187870B9204A2B681168042B0ADC12
:100F300008B111602B6013F003010BD11268136824
:100F40001BBA136070BD086800BA41F8040B043B7B
:100F50000120EBE75B4203F0030358BF594202292B
:100F600004D1126813885BBA9BB2EAE70329E9D17E
:100F7000106802681104C2F3074301F47F010B43B8
:100F800002F47F4213430360DCE700BF83090020C3
:100F9000C404002085090020D0040020C8040020DB
:100FA000C892000084090020CC0400202DE9F84FED
:100FB0000C462B49DFF8AC80DFF8AC90DFF8ACB022
:100FC00000230B602A4988F8003006460B6015465E
:100FD000012C2F4655F804AF1ED90222494650462F
:100FE00007F0F8F980B99AF80220003A18BF0122F8
:100FF000924420490222504607F0ECF930B901230F
:1010000088F80030013CE3E70022F1E7494650460A
:10101000FFF7E0F9A8B9043700221146786805F017
:101020008FF8154B002211461860786805F088F893
:10103000124B134918603046FFF704FF0020BDE84B
:10104000F88F9AF800202D2AE6D19AF80120002A7C
:10105000E2D053465A460821304605F0AAFED1E7B1
:10106000C404002084090020E2920000E8920000FD
:10107000C8040020E5920000D0040020CC04002029
:10108000950E000038B51C460B4B4568187870B1BA
:10109000002003F0E7FC2060002003F033FD00286F
:1010A000FAD12B68296C01209847002038BD03F045
:1010B00005FD2060F5E700BF8709002008B531B1C4
:1010C000044B406801221A70083006F0ABFF002084
:1010D00008BD00BF8709002013B5064A06481268FC
:1010E000002400940123214600F0ACFB204602B00E
:1010F00010BD00BF208A0000A887000037B54468F3
:101100000A49226004F1080523640022284606F0FB
:101110007DFF4FF4A472E46300232846CDE9002349
:1011200004F0E0FD002003B030BD00BF6F6B000095
:1011300010B581680446083101F0AEF8A168034A91
:1011400020460831BDE8104001F04CB85B94000027
:1011500038B58368D3F86432DB0704461CD4406892
:1011600003685B689847054620B9E06806F0F1F827
:10117000A3681D71A3685B6B13B12946204698478D
:10118000A36807F0BFF90022C3F80C23044B1858DA
:10119000BDE8384001F032BD6FF00F05EAE700BF4F
:1011A0000800000010B5836802221A7183689B6BE7
:1011B0000446BBB905F0EFFC8368D3F86432DB0466
:1011C0000BD50321084B094A05F0BBFFA0686FF45B
:1011D000805100F5197005F0F6FC2046BDE810407E
:1011E00000F070BF10BD00BF699400005D91000069
:1011F0002DE9F04FA7B004465422002111A807F0B2
:1012000071F90023CDE90533A368204642330293E8
:1012100005F024FF204605F0C9FE18B99D49606914
:1012200005F0FCFCA06814220021083007F05AF9F0
:10123000204600F0E5FDA168E0688A8F4231002673
:1012400006F093F8204606F012F94FF0FF37B24649
:1012500003960DF14408B3463546B146DDE9053243
:10126000012A6DD0132B6ED85FBBBBF1000F0AD0E3
:10127000204606F01CF9A2681423423211A90DEB96
:10128000030000F071FCB9F1000F0CD099F8113097
:10129000FE2B08D1059B26AA02EB830252F8542CA0
:1012A0000AB101330593A068059D4369002B40F006
:1012B000B680CEB1C3689E422DD00D9600F10805D0
:1012C00024E0029A0223414606A800F04DFC06994C
:1012D000D8F804200292034631B101290AD148B15D
:1012E0006D4A204605F02DFF6FF00705284627B010
:1012F000BDE8F08F059B002B34D0D8F8000000F03B
:10130000EBFF98B166B1A5680D9608350CAE0FCE0F
:101310000FC533682B602046FFF70AFF0125E5E77C
:101320005E4A0121204605F00CFFDDE7059BCBB1AD
:10133000D8F800202946204601F07AF8022809D181
:10134000059B132B91D9069B022B8ED1544B554AEA
:101350000121C6E7032805D0059B013305934FF013
:10136000010B7BE7039B33B9D8F8001007AA484666
:1013700005F0D1FD054608F10408013F9DB3EB6877
:10138000BBF1000F08D0F3B1204605F067FE204600
:1013900005F023FE444AC4E7ABB1A368DDF814A00E
:1013A000AE4603F1080CBEE80F00ACE80F00DEF813
:1013B0000030CCF80030AB682BB96B7CFE2B04BF3F
:1013C0002F7C07F1FF37D5F804C0BCF1000F08D01F
:1013D000AE46BEE80F000CAE0FC6DEF8003033603C
:1013E0006646A94603E0059B53B101230393069B80
:1013F00017B9022B7FF432AF059B013305932DE71C
:10140000A368DB6913B1DB68002BEED1274B009397
:10141000274A119B0121204605F093FEE5E7037E54
:10142000A5EB0A05B3B1417E4FF6FF72FF2918BF45
:101430000A469D4202D313449D420BD983681D4A3C
:101440000121204605F07DFE2046FFF771FE6FF07A
:1014500015054BE7012105F0FAFBA06800F53E7089
:1014600005F060FCA36811AA294602EB8A025B69B9
:10147000204698470546A0684FF0FF324FF0FF33F3
:1014800000F53E7005F0D7FBA068002105F0DFFBFA
:101490002CE700BFA48F0000AD940000C1940000B1
:1014A00022950000D78D0000DF9400000E9500000B
:1014B000149700004695000070B50446806886B019
:1014C000012100F5197005F06FFBA3681B79022B51
:1014D00020D100230193A36860689E6B03681D6997
:1014E00001AB0EB3102202A9A847019B93B1A068DB
:1014F000012105F0ACFB019A02A92046B047A06883
:10150000002105F0A4FBA3689B6B002BE3D12046D0
:10151000FFF748FEA0686FF0010100F5197006B0F2
:10152000BDE8704005F04FBB01220DF10301A84753
:10153000019B002BEED09DF903109DF80330A268AB
:101540000029C8DB5179032900F27581DFE811F029
:101550000400F2000A0173010D2B56D00A2B32D081
:10156000B2F864126FF3CA01A2F86412092BA068E2
:1015700060D014D8002BAED0082B5ED05A1CAF49D7
:10158000A068D2B28A5C12F0970F62D0012105F0F8
:1015900069FB9DF80310204600F05EFD9BE71B2BC6
:1015A00045D07F2BEAD1D0F860329B0793D501213B
:1015B00005F058FBA368D3F860321E0745D42046D7
:1015C00005F000FE87E7D2F86412C1F3C70129B124
:1015D000D2F86412C1F3C7010A29CFD1B2F864125C
:1015E00063F3CA01A2F86412A568A98FC9B9284695
:1015F00005F038FBE06805F07EFE9149606905F072
:101600000DFB2046FFF7CEFD65E7D2F86412C1F36B
:10161000C7010029E2D0D2F86412C1F3C7010D2935
:10162000DBE72046FFF7E4FDC5F81003E9E70123F7
:10163000437150E7D0F860324DE7D0F860329A0736
:101640007FF549AF012105F00DFB204605F0D5FDE2
:1016500041E7D0F8602295077FF53DAF013B162B9F
:101660003FF639AF01A252F823F000BF0518000081
:10167000C9160000D1160000BF150000F9170000C0
:10168000F1160000D7140000D7140000D714000092
:10169000D7140000F916000001170000D71400004D
:1016A00009170000D714000013170000D71400001A
:1016B000D7140000D7140000D7140000171700003B
:1016C000D71400002D170000204605F0CEFC02E7DD
:1016D000204605F0C3FC204605F068FC18B95849BF
:1016E000606905F09BFAA068012105F0BBFA88E764
:1016F000204605F0C2FCEEE6204605F0C7FCEAE60F
:10170000204600F0DFFCE6E60021204605F0B4FAB2
:10171000E1E60121F9E7204605F09AFC204605F0B4
:101720003AFAA068012105F09DFAD4E6204600F0BF
:1017300013FCF6E75B2B02D102235371CBE6D2F800
:101740006022900706D5622B08D14FF0FF3120466A
:1017500000F0BEFBA36800225A71BCE6662BF9D1EB
:101760000121F4E700215171A268D2F860128907C3
:101770007FF5B1AE313B1B2B3FF6ADAE01A151F869
:1017800023F000BF011800000D180000251800000C
:10179000F5170000D7140000D7140000D71400007C
:1017A000D7140000D7140000D7140000D71400008D
:1017B000D7140000D7140000D7140000D71400007D
:1017C000D71400001317000009170000F1160000DD
:1017D000C9160000D7140000F9170000D714000044
:1017E00005180000D7140000D7140000D71400001B
:1017F0001118000003235371204605F02FFC6AE600
:1018000003235371204605F023FC64E60323537140
:10181000A068D0F8601201F0010181F0010105F02B
:1018200072FA58E603235371A368D3F860329B071A
:101830007FF551AEC3E600237FE700BF849C000024
:10184000A48F00002DE9F047044680688846D0F850
:101850000C1388B015461F46002968D192464FF4F4
:10186000457206F03FFEA36822681A60E06805F042
:10187000E4FDA06800F53E7006F095FA4FF42A7971
:101880004FF41A76A068304406F037FDA0680022B5
:10189000831901214844103606F012FDB6F52A7F5F
:1018A00009F11409EED1A36900221A60A06802218F
:1018B00000F5197005F078F9A36850225A85A368DD
:1018C00018221A85A668306805F0A2F986F82C005F
:1018D000A368184A25F0340565F3070AC3F860A227
:1018E0006068036841461D682346A8470546D0B98D
:1018F000A36801221A71D4E9090100220023CDE96D
:1019000006230E230393109B0495CDE901730094E5
:10191000094B4FF4006203F02FFBA368C3F80C03DC
:10192000216A03F05BFA284608B0BDE8F0876FF043
:101930007705F8E73B6C00008919000010B50446F4
:1019400080680379012B19D100F53E704FF0FF320A
:101950004FF0FF3305F06FF9206805F059F918B121
:101960000849606905F05AF92046FFF71BFCA0689A
:1019700000F53E7005F0D6F9002010BD6FF085002F
:10198000FBE700BFA38F0000F8B50446406803687A
:1019900000219B68984700283FD12046FFF7CEFFE3
:1019A00000283AD11D4E1E4FA06800F52A704FF056
:1019B000FF324FF0FF33032104F0C4F90546A0685D
:1019C0004FF0FF324FF0FF3300F53E7075B105F078
:1019D00032F920462B46134A012105F0B2FBA068DC
:1019E000BDE8F84000F53E7005F09CB905F023F91C
:1019F00032460221204605F0F5F820463A462946AF
:101A000005F0F0F8606803685B6903B19847A06867
:101A100000F53E7005F086F9C6E7F8BD51110000EB
:101A2000B91400006195000010B5084A0446082169
:101A300005F0BFF92046064A082105F0BAF920460C
:101A4000044A002100F0CEFB002010BD7895000074
:101A5000CC95000066960000F8B51E4617460B466A
:101A60002F4A0821044605F0A4F96EB33B782D4AAD
:101A70000821204605F09DF901256A0704D12A4A6C
:101A80000821204605F095F9AE4223D97B5D254A11
:101A90000821204605F08DF90135102DEDD1234A9E
:101AA0000821204605F085F9D6B91F4A08212046AD
:101AB00005F07FF90125AE422B4613D81A4A0821BA
:101AC000204605F076F919E0194A0821204605F06C
:101AD00070F90125164A0821204605F06AF9DBE76E
:101AE00000252B46FB5C134AD25C12F0970F08BF0F
:101AF0002E23114A0821204605F05BF90135102DEF
:101B000007D06B07D7D1084A0821204605F051F9C4
:101B1000D1E72046094ABDE8F840082105F049B957
:101B20007C960000839600008B9600008D96000046
:101B300089960000859C00008F9600009296000018
:101B400010B5044613460A460146064801F04AF914
:101B500023691B7923B12046BDE8104005F054B934
:101B600010BD00BF216E00002DE9F04F85B00026AA
:101B7000DFF8A8A101910746144699460660B346CE
:101B80002378002B00F0C6801AF8033013F0080306
:101B900004D004F801BBF3E70026F1E73A68511CD2
:101BA0003960019941F822403A684A4500F0B28014
:101BB0001E4621780029E3D0A6B90E4623461C46CE
:101BC000272E04D05C2E20D0222E40F09780204675
:101BD00005F044F9611C0246204606F069FC2178B4
:101BE0000029CDD0B142A04604F101041BD14046EA
:101BF00005F034F921460246404606F059FC98F8B3
:101C000000604446002ED9D1BAE7204605F026F9F7
:101C1000651C02462946204606F04AFC66782C469A
:101C2000002ECDD1ACE75C2998F80110D8D1B14293
:101C30008C4608D1404605F011F92146024640463F
:101C400006F036FCB5E7302925D10025022218F828
:101C500002C0ACF13000C0B2072819D8ED00013243
:101C6000EDB2052A45EA0005F1D1511E4144404636
:101C70000392029105F0F2F8039A0299023A821A4D
:101C8000404606F015FC98F8011088F80050A7E7C8
:101C9000D2B2022AE9D1BCF1780F2AD10025022064
:101CA00018F80020A2F1300C5FFA8CFCBCF1090F8F
:101CB00009D82D01EDB24CEA0505022801D0042215
:101CC000D3E70320ECE7A2F1610CBCF1050F05D8C6
:101CD0002D01EDB2573A1543EDB2EEE7A2F1410CFA
:101CE000BCF1050F03D82D01EDB2373AF3E7022816
:101CF00002D108F1010473E70322B6E71AF80630AF
:101D00001B073FF549AF6678631C002E7FF457AF81
:101D10001C4635E7304605B0BDE8F08F859C0000D5
:101D200038B50B46154648B91449154A521AB3EB53
:101D3000920F05D251F82350284638BD84680CB95B
:101D40000025F9E70F4A94420AD30F4A944207D27A
:101D500018462268294690472B68002BECD1EFE704
:101D60000A4A944202D30A4A944205D324681422B0
:101D70005343E518E358F0E70133F8E7D487000050
:101D8000F88700000C8800000C880000F88700002D
:101D90000C8800002DE9F843074648B105F05EF8CD
:101DA0000025DFF8589004462E46631E9D4201DB55
:101DB000BDE8F883284601353B5C19F803301B0762
:101DC000ADB2F2D529468BB2A342EED27B5C19F8B4
:101DD000038018F0080803D001360131B6B2F2E7EB
:101DE000002EE2D08AB2A21A0130A41B013239447B
:101DF000384406F05DFBA4B24646D6E7859C000059
:101E0000F8B5846894F84230054653B9AB689A8FA8
:101E1000DA87F8BD013A92B2A2872AB984F8422043
:101E2000F4E7124E04F14200A28F831813F8013C2C
:101E3000F35C13F00803EDD183549AB210FA83F1E6
:101E400010F802C016F80CC01CF0080F1F4603F172
:101E50000103F2D1BFB2002FD8D0A68F731C9A1AFB
:101E6000F61B06F025FBA687D0E700BF859C000087
:101E7000F7B51646027800232D2A0446019305D1B2
:101E80006FF015033360002003B0F0BD06F03AFB9D
:101E90000B4F0546C3510A46204601A904F0C0F97C
:101EA000EB59222B02D16FF02103EBE7002BE7D196
:101EB000019BA342E4D01B78002BE5D0E0E700BFF4
:101EC0000C000000014905F051B800BFA48F0000CC
:101ED0002DE9F0410C1E064631DA644224B24FF07F
:101EE000FF35DFF86080A4B2AFB212E0B368DA8FDA
:101EF00003F1420C9B8F1146002071B9B5F1FF3FF1
:101F000000D073B9891A09B2304605F087F8013C50
:101F1000A4B2002CEAD1BDE8F0818B4201D1012DA1
:101F2000F0D01CF801E018F80EE01EF0070F04D105
:101F30000028E7D1394489B2DFE70120FAE701251B
:101F4000CFE700BF859C00008268024940694232A9
:101F500005F00CB85D9100002DE9F041836806465C
:101F6000988F00283DD0D98F00293AD0413103F114
:101F700042020B441D46954206D3294611F80149F9
:101F8000202C25D0954225D29CB2AFB2E21B92B252
:101F900005F10108511C2944821A404606F088FACE
:101FA000B268938F391B13FA81F39387B268938FCA
:101FB0001A44002382F84230304609B205F02EF868
:101FC00043463046084ABDE8F041082105F0B9B85B
:101FD0000D46D0E7294611F80149202CD4D00D46F2
:101FE000D0E7BDE8F08100BF5D9100002DE9F04130
:101FF00083681746DA8F0D46D3F8601242321344D5
:102000004A0704461FD51846FEF7F6F9DFF8408068
:10201000064696B9A3689A8FDA87A06804F0B3FFE2
:1020200020B107B115B16069FFF74CFF6942204646
:1020300009B2BDE8F04104F0F1BF6069414604F027
:1020400095FF013EE5E7034A082105F07AF8E1E74C
:10205000929D00005D91000013B583688DF8071014
:10206000D3F860220446D00722D5D98F9A8F8A42AE
:102070001ED0481CD8870B449DF8072083F84220C7
:10208000A368D3F86012890710D5D3F8603260696D
:102090000B4913F0040F18BF2A2204F067FF2046F3
:1020A00004F084FF10B16069FFF70CFF02B010BDAF
:1020B00001220DF10701204605F051F8F6E700BFB7
:1020C0008F96000010B58368094A1B6804460221F8
:1020D00005F037F8A368D3F860329B0707D5204690
:1020E000FFF732FF2046BDE8104004F085BF10BD69
:1020F0005D910000014905F091B800BFA48F000078
:102100002DE9F047054690460E46002965D0DFF8D8
:10211000D0900024335D19F803301A071ED43046DE
:10212000FEF76AF9AB685A8D80B2001BA2EB080378
:10213000984206EB040A13D95146002711F8010B07
:1021400019F800C01CF0080F02D00A282DD03B4619
:1021500008EB0700824227D90137EFE70134D9E7BE
:1021600053460027B84214D013F8012B0A2A19D17C
:10217000686904F049FE51463A46284604F096FF45
:102180006869FFF7B7FF0134414628463C4404F034
:102190000CFF6869311905F041F86869BDE8F0473E
:1021A000FFF7A8BF0137DDE71F46686904F02CFE82
:1021B0003A465146284604F079FF3C44335D19F80D
:1021C00003301B0707D46869FFF794FF4146284690
:1021D00004F0EBFEA3E70134F0E7BDE8F08700BFB1
:1021E000859C00002DE9F04F0E46002189B0044681
:1021F00017460D4603AA304601F10108FFF790FD8E
:10220000B0B995B127B13A460821204604F099FFAC
:102210001E4FDFF87C90DFF87CA0002103AA304637
:1022200001F10108FFF77CFD60B909B0BDE8F08F4E
:10223000006810B1FEF7E0F880B2854238BF05466D
:102240004146D7E703688BB11A787AB1D0F804B069
:102250004A46CDE9005308213B46204604F071FF71
:10226000BBF1000F04D16069FFF744FF4146D5E799
:10227000524620463B46082104F063FF6A1D92B295
:1022800059462046FFF73CFFF0E700BFCC96000020
:10229000AE960000B5960000F7B50F6805460E46ED
:1022A000A7B13846FEF7A8F884B2094B0093284638
:1022B000084A3B46082104F044FFE21C716892B2D0
:1022C000284603B0BDE8F040FFF71ABF3C46ECE7F4
:1022D000C8960000B996000010B507490446FEF7FD
:1022E00079F838B105492046FEF774F8B0FA80F065
:1022F000400910BD0120FCE7BE960000C196000019
:1023000008B58369034A1B68082104F052FD0020C8
:1023100008BD00BFCF9600002DE9F3410E4A0F4CD7
:102320000F4EDFF840800821054604F042FD0023EF
:10233000B44203F1010703D3002002B0BDE8F081ED
:10234000A268126800929BB242460821284604F017
:1023500030FD2C343B46EBE7DF960000A8870000F9
:10236000D4870000F796000008B5024904F02EFD5E
:10237000002008BDA58F00007FB50F4E0446002544
:10238000A268E0680DF10E0302F5A172012104F0CC
:10239000B5FFBDF80E00A36850B103F5A17300931B
:1023A00032462B460821204604F003FD0135E7E7BD
:1023B00083F8420104B070BD0397000010B50446D5
:1023C00004F014FD034A03460821204604F0F1FC02
:1023D000002010BDDE920000022907B50DD1536820
:1023E00001930E4B009313680D4A012104F0E1FCA8
:1023F0006FF0150003B05DF804FB8368094AD3F859
:10240000603213F0020F4FF00801074B08BF13466C
:10241000064A04F0CEFC0020ECE700BF1A9700004B
:10242000119700000D970000FD9000002F9700000D
:102430002DE9F04F074689B01546894621B110466F
:1024400005F001F800285BD1032455E05C463CE030
:1024500029460AF5A17005F0EBFF0646002854D086
:10246000FDF7CAFF82B2601C01323146304406F0EB
:102470001FF822465946304606F00CF84FF020036C
:102480003355BAF8403001331C44AAF8404008F1F3
:102490000108002401994B1C03AA48460193FFF749
:1024A0003FFC0646E8B131680022284605F048F9AD
:1024B0000028EFD1D6F800B0D7F808A0BBF1000F84
:1024C000C4D05846FDF798FF84B2BAF84030234490
:1024D000FF2BBDDD0E4A2B460321384604F031FEAA
:1024E0000124B8F1000F07D0B8682A4600F1400176
:1024F00000F5A17004F0E8FC204609B0BDE8F08FBB
:102500004FF0000841460224C5E70224E9E700BF76
:10251000379A0000014910220A60704710ED00E070
:1025200072B6404080F31188BFF36F8FBFF34F8FB7
:1025300030BF62B6BFF36F8F704700BF72B64940BD
:1025400081F31188BFF34F8F20BF80F3118862B6EB
:10255000704700BF40B2002807DB044A410901234D
:1025600000F01F00834042F82130704700E100E096
:1025700040B200280CDB4309064900F01F0020335D
:102580000122824041F82320BFF34F8FBFF36F8FAA
:10259000704700BF00E100E0054B420900F01F005A
:1025A00053F82220012303FA00F01040704700BFC7
:1025B00000E100E040B20028A8BF00F1604001F156
:1025C0000101B8BF064B4FEA4111ACBF00F56140B5
:1025D00000F00F00C9B2B4BF195480F8001370475F
:1025E00014ED00E030BFFFF7FDBF00BF0B4A08B598
:1025F0000B4B22F07F029A60BFF34F8FBFF36F8FB8
:10260000D3F8882022F47002C3F8882002F0EAFA96
:1026100003F09CF900F05EFA02F03AFB00000000C3
:1026200000ED00E00A4A0B4993680968C3F8B0104E
:102630000949C3F8AC004B6843F080534B6000235A
:1026400083F31188BFF36F8F9368D3F8B00070479E
:1026500040090020748D000000ED00E016498A68F2
:102660004FF030001044EFF3098C80E8F01F202079
:1026700080F31288BFF36F8F104F4FF000664A69E6
:102680008A603E604FF0A804141920680C4C20604A
:10269000D2F8AC000023C2F8AC3080F3118804B546
:1026A000104600F0CDFABDE8044002F1300090E899
:1026B000F01F8CF3098870474009002004ED00E00A
:1026C000EC0700201EF0040F0CBFEFF30880EFF3BF
:1026D0000980816911F8021C0229FFD001B504F0BC
:1026E000F7FE01BD42F8203C009B42F81C3C0A4921
:1026F000019B42F8183C029B42F8143C21F0010176
:102700004FF0807342F8043C42F8081C0023203A42
:102710000265C0F8AC307047310600000A4A034633
:10272000906878B113F1160FD0F8980005D0A0F199
:1027300040029A4205D8834203D2814228BF00203A
:1027400070470020704700BF4009002008B51446BC
:102750000A4A0B4B9060D0F8A8201A600D4600F092
:102760006FFA204685F30988002163B681F311884A
:10277000BFF36F8F00220023FDF75AFF40090020AE
:10278000EC07002001B5EFF30580A0F110004FEA3F
:10279000C0000449014409C99847BDE80140024905
:1027A00008470000C88500000D280000124B134A9E
:1027B0002DE9F041D518DFF84880013DB5FBF3F570
:1027C0005D43104B08EB0304013CB4FBF3F403FB43
:1027D00004540E1B07460C49304605F05BFE701989
:1027E00042460021083E05F07DFEC7F8A86004F1CE
:1027F0000800BDE8F08100BF0100000000000000FB
:1028000008000000040000000C880000044B9968D8
:102810005869884203D003494FF080520A607047DC
:102820004009002004ED00E070B5264B15469A6A79
:1028300012F0100F9A6A14BF1124102412F0080F1E
:102840009A6A18BF1224920706460AD5586B9A6AEC
:10285000140634D519B19A6A22F080029A621324C0
:1028600001E06FF01500174B9A6A12F0010F9A6A97
:1028700018BF142412F0200F9A6A18BF1524D2062C
:1028800002D49B6A9B070AD50E4B5B68190506D5D7
:102890003146FFF743FF10B180F309880224094B4A
:1028A0009A6A920642BF5A6A22F400525A629A6A9F
:1028B00042F0FF029A6200232B70204670BD6FF039
:1028C0001500CCE700ED00E0134B9A6A12F0007F90
:1028D0009A6A14BF1E201D2012F0807F9A6A18BFCA
:1028E0001F2012F4002F9A6A18BF212012F4802FA3
:1028F0009A6A18BF222012F4003F9A6A18BF232058
:1029000012F4803F9A6A6FEA02426FEA12429A62B8
:1029100018BF2420704700BF00ED00E010B5194B30
:102920000246986A9C6A10F4805F14BF1720162034
:1029300014F4006F9C6A18BF1820A40509D5986B81
:10294000986A000404D51AB19A6A22F400429A6285
:1029500019200C4B9A6A12F4806F9A6A18BF1A20D9
:10296000D2050CD49B6A13F4005F18BF1C20054AE3
:10297000936A43F47F43936200230B7010BD1B20C6
:10298000F5E700BF00ED00E0F0B5484B5B688BB0A9
:102990000446C3F30803002585F31188BFF36F8F46
:1029A00002F07F40B0F17F4F11D102F00C000828F7
:1029B0000DD010074CBF0C4601250022033B8DF8BB
:1029C0000720032B05D8DFE803F0246367602C465B
:1029D000F3E700239DF80720CAB902AE04F12007EF
:1029E00020686168324603C20834BC421646F7D1FB
:1029F000099A002D54D0C2F3080121B96FEA52227E
:102A00006FEA4222099202A9184604F05FFD0BB05A
:102A1000F0BD264BDA6A9107DBD4DA6A002AD8DBEC
:102A2000DA6A5200D5D55A69A16942F480725A61B6
:102A3000BFF34F8FBFF36F8F5A6931F8021C22F436
:102A400080725A61BFF34F8FBFF36F8F4DF60272E2
:102A500091420AD09A6AD2B24AB10DF1070201211D
:102A60002046FFF7E1FE0346B4E72368B2E79A6A1F
:102A700012F47F4F05D00DF107010120FFF74EFF43
:102A8000F1E79B6AB3F5803FA3D3FFF71DFFEAE7A9
:102A90000DF107020021E3E70DF107010020EDE74A
:102AA00022F4FF7222F00102ACE700BF00ED00E06B
:102AB000024A536943F010035361704700ED00E090
:102AC000EFF30880EFF3098101B57246FFF75CFF71
:102AD00001BD00BF044800232021C2180133302B60
:102AE00082F80013F9D1704700E100E0002080F384
:102AF0001488BFF36F8FFDF7DBFE002011490860DB
:102B0000BFF34F8F104880F3088800F045F820206D
:102B100080F311880D484FF0AA014FF4046205F0CC
:102B20000FF90A484FF40461401880F30988EFF365
:102B300014800221084380F31488BFF36F8FFFF7DE
:102B400055FD000094ED00E0002400204016002018
:102B5000BFF34F8F0549064BCA6802F4E062134386
:102B6000CB60BFF34F8F00BFFDE700BF00ED00E07B
:102B70000400FA050749D1F890200023C2F3072288
:102B80001846934200DB7047C1F89830C1F8A000A6
:102B90000133F6E700ED00E008B572B6002383F3D9
:102BA0001388FFF7E7FF144B4FF0FF32C3F8802084
:102BB000C3F88420C3F88820C3F88C20C3F8902081
:102BC000C3F89420C3F89820C3F89C20C3F8802150
:102BD000C3F88421C3F88821C3F88C21C3F890215D
:102BE000C3F89421C3F89821C3F89C2162B6BFF3BF
:102BF0004F8FBFF36F8F08BD00E100E0084B9B686B
:102C000083420BD1EFF3058343B1064B5A6842F080
:102C100080525A605A6A22F400425A6202F020BE80
:102C20004009002000ED00E0024B034A0348012167
:102C300000F072B80000022000000020448C000068
:102C4000D0F89820054B403A1A60054A4021C3E964
:102C500001121846012100F069B800BFF0070020FA
:102C600000000B15F0B5204E00258D4239DA44687E
:102C700074B353B104F1FF3C14EA0C0F2FD11F2C95
:102C80002DD907681CEA070F29D1202C0768D0F836
:102C900008C05FFA82FE1ED9B4F1004F1DD8013C76
:102CA000B4FA84F4C4F11F046400BEF1070F4CEAC7
:102CB000040C14D827F01F04144344F01004C6F881
:102CC0009820C6F89C404CF00104C6F8A0400132A0
:102CD00001350C30C9E70824E7E73E24E5E76FF04B
:102CE00015021046F0BD00BF00ED00E0044B0522C8
:102CF000C3F89420BFF34F8FBFF36F8F704700BFAF
:102D000000ED00E0BFF35F8F024B0022C3F8942078
:102D1000704700BF00ED00E010B5034C012322789E
:102D2000FFF7A0FF207010BDA609002008B5094AD2
:102D300000231278FFF796FF10F1160F02D0064A13
:102D4000072800DD08BDC2F89800C2F8A0300130A5
:102D5000F6E700BFA609002000ED00E0144908686E
:102D6000082810B521D8FFF7CDFF124C4968002282
:102D7000904201F10C0105D10F4B1870FFF7B6FF1F
:102D8000002010BDC4F8982051F80C3C23F01F031C
:102D9000134343F01003C4F89C3051F8043C43F053
:102DA0000103C4F8A0300132E2E74FF0FF30E8E75A
:102DB000508C000000ED00E0A609002008B5024B91
:102DC0001B689847002008BDFC070020034B044AFD
:102DD0001860937843F0020393707047FC0700205B
:102DE00064000020F0B587B007460E461446002167
:102DF000102268461D4605F075FB02238DF802304F
:102E00002A46054B019321466846CDE9047603F036
:102E10006BFA07B0F0BD00BFEF74000008B50448BE
:102E200003F0ADFC404080F311884FF0020002DF58
:102E30008D9A000008B50649064821F00701C1F146
:102E4000005202F5003203F0D3FC002008BD00BFA1
:102E5000932A0020802A00200B0706D5034B1B5C19
:102E600003F00303012B08BF20307047859C00004E
:102E7000044A0123C2F840354FF080420020C2F8D6
:102E80007835704700E0014020B1034B800143F0EA
:102E900001031847704700BF10880000084B70B549
:102EA000C31A0D4607499B10044659430648402261
:102EB00004F065FC2B4601462046BDE870401847EB
:102EC00014080020B76DDBB67885000073B50C4C94
:102ED0000C4A4023041B00930D460B460A49A410DC
:102EE00061430646094804F077FC011E05DA3046C6
:102EF0002B4602B0BDE87040184702B070BD00BF5D
:102F00001408002045780000B76DDBB67885000016
:102F100010B505F079F84FF47A72A0FB0203074C64
:102F200002FB0131C00B40EA4140C90BC4E900017A
:102F30000120BDE8104004F0F3BD00BF28020020CE
:102F4000002270B5012104461046FFF733FB0F48FD
:102F500001F0F6F80E4B984215D104F0D4FD266925
:102F60000C49304603F0D1FC00280BDB0125356409
:102F70002469084904F11C0003F0C7FC002801DBA8
:102F8000E564002070BD6FF00400FBE7CD2F00006A
:102F90000000AD0B708C000070B501460C23094891
:102FA0004B43C418D4E90E56403300221844A263A0
:102FB00004F0D2FB2DB132462B460348BDE87040E9
:102FC000184770BD140800207885000010B1012852
:102FD00004D07047034B1B6C5B0701D1FFF7DCBFCC
:102FE000704700BF1408002008B54FF02003EFF32E
:102FF000118183F31288BFF36F8F114A136843F076
:1030000002001060DA0707D481F31188BFF36F8FD5
:10301000BDE80840FFF77CBF4FF08043D3F80C2495
:10302000D3F80C34DB07EFD5064804F095FB81F3A9
:103030001188BFF36F8F0020BDE80840FFF7ACBFD9
:1030400064080020540800207FB500220123CDE948
:10305000022304ABCDE90433094ACDF800D06B4616
:10306000CDF804D004F0E7FB002805DB4FF48042E4
:103070000023684602F0EAF807B05DF804FB00BFE1
:10308000637800002DE9F74F4FF080470546D7F8E9
:10309000186406F480364FF02003EFF3118883F3B1
:1030A0001288BFF36F8F04F0AFFF4FF47A72A0FB6A
:1030B000024302FB0133E40B44EA4344D7F80C34E7
:1030C000244BD7F80C94D3F800B0234BD3F800A0CE
:1030D00088F31188BFF36F8F204ADFF88480214F77
:1030E0002846082103F065FE19F0010FDFF87890FB
:1030F0001E4AB9F81A30009328460CBF43463B4697
:10310000082103F056FEA4EB0B03009328465B4610
:10311000174A0821A4EB0A0403F04BFE5346284645
:10312000144A0094082103F044FE2846124A08215C
:1031300003F03FFEB9F83630009328460B4A002EC4
:103140000CBF43463B46082103F033FE002003B08A
:10315000BDE8F08F2802002020020020C39A000062
:10316000BE9A0000A58F000014080020CE9A00002F
:10317000E89A00000A9B00002B9B000010B504F0A9
:1031800043FF4FF47A72A0FB0203074C02FB0131AC
:10319000C00B40EA4140C90BC4E900010120BDE871
:1031A000104004F0F9BC00BF2002002010B54FF021
:1031B0002003EFF3118483F31288BFF36F8F074A64
:1031C000136823F00201DB07116001D4FFF7D6FF7B
:1031D00084F31188BFF36F8F10BD00BF6408002017
:1031E0002DE9F0413849BFF35B8F0746012251E8D2
:1031F000003F41E800200028F9D1BFF35B8F33B9CD
:10320000324933484B60CB608A6003F091FB7B1EF0
:10321000012B2BD8012F07D14FF08043D3F81C345A
:1032200003F00303012B21D004F08EFD0546F8B90D
:10323000284B1B78E3B14FF080430222C3F80823E8
:103240000646DFF894804FF08044D4F81824D4F870
:103250001834D20316D503F00303012B01D0012F3C
:1032600010D15DB386F31188BFF36F8FBDE8F08195
:103270004FF02003EFF3118683F31288BFF36F8FB3
:103280000125DEE7ADB13046FFF758F9D4F818351F
:10329000002BDAD1D4F80421002AD6D0C4F80431A6
:1032A000D4F804310123C4F81835C8F88031A3607C
:1032B000CBE70021212002F0B3FAE7E74FF080438B
:1032C0000222C3F80423D1E71008002000080020E0
:1032D00030080020CA0D002000E100E010B5044CC9
:1032E0002046FDF787F92046FFF770FD002010BD4E
:1032F000F5320000F7B5144E8DF80700044603259B
:10330000EFF311874FF0200181F3118801220DF1B5
:103310000701002001F0A6FB87F3118820B10123EB
:103320003370204603B0F0BD3378002BF9D0013D57
:1033300008D004F009FD0028E2D10021422002F06B
:103340006FFADDE73570ECE7A709002008B50748FC
:1033500004F0EBFC38B10648FFF738FD0448FDF7F0
:1033600049F9002008BD6FF01200FBE7B4850000AA
:10337000753300000A2838B5074D044604D1AB6800
:103380000D215B6828469847AB6803485B68E1B24B
:103390009847204638BD00BFB485000030B540686E
:1033A000057B01F01F04B2F5001F85B044EA451407
:1033B00005D1204601F09EF9002005B030BD002562
:1033C000B2F5800FCDE9025514D1B3F1007F0CBFE7
:1033D000042305238DF808300023194602AA20464D
:1033E00000F0A4FF234B98423DD10121204601F07B
:1033F00033F9E1E7B3F1C06F27D0B3F1007F14BF19
:10340000012302238DF80830836823FA01F111F0BB
:103410000101E1D1B2F1A07FDED104F01F03620906
:1034200003F5E07313D0012A20D1134A52F8233058
:10343000DB07D1D40DF107052946204601F0B6F887
:103440000E4B984206D00395C6E70323DAE74FF008
:10345000A042EBE7284601F0F9F8064B9842F2D07B
:103460006FF00B00A9E76FF01500A6E751F82330C5
:10347000FFDE00BF0000AD0B000300500400AD0BE9
:1034800010B501F0D3F8044668B901F0A7F8084B6D
:1034900098420AD10748214601F082F822460521C8
:1034A0000620FFF787F8002010BD6FF00400FBE74F
:1034B0000000AD0BB9340000420970B5034602D0DC
:1034C000012A17D070BD0D4E326951680029F9D01C
:1034D00003F01F0301250C689D400029F2D08A6883
:1034E0002A4002D04B68304698472CB123682146C9
:1034F0001C46F2E7024EE7E72346F8E7A085000006
:103500008C8500002DE9FF4147683B7B01F01F05DA
:1035100045EA43150E4628460DF10701144601F011
:1035200045F814F4403F80460DD1284601F008F9D3
:103530003D4B984503D19DF8070001F081F800202C
:1035400004B0BDE8F0810023194602AA2846CDE95F
:10355000023300F0EBFE344B984214D1804503D186
:103560009DF8070001F06CF8A3034ED540F2063336
:103570002340B3F5837F1AD00DD8062B18D005D879
:10358000B3B1022B33D06FF01500D9E7B3F5807FCC
:10359000F9D101230CE040F20222934229D0B3F585
:1035A000407F28D0B3F5007FEDD1022300E0072350
:1035B0008DF8083084F48033C3F30043E0068DF8BF
:1035C000093054BFC4F34013032321038DF80A309C
:1035D00013D57A680123B340C2F80835002202A946
:1035E000284600F063FF104B9842A8D0CBE7042395
:1035F000DEE70523DCE70323DAE7620341BF0123AB
:103600007A68B340C2F80C35E8E7E3064FF00003F0
:1036100054BFC4F3401403241A4602A928468DF867
:10362000084000F083FEDEE70000AD0B036803F006
:103630001F025B09026004D0012B034818BF002061
:1036400070474FF0A0407047000300502DE9F04F45
:10365000DFF8588185B01546814600EB81010127CE
:10366000494503D1002005B0BDE8F08FD9F80030FE
:1036700003F07F04C3F343267F2C4FEA134308BFB4
:103680004FF0FF34192B00F28D80DFE803F00D14AA
:103690001B1E21281E8B8B8B8B3A688B8B8B8B8B05
:1036A0008B8B8B8B6B828588C5F80C45601C63D136
:1036B00009F10409D4E7C5F81445621CF8D04FF0AD
:1036C000000A64E0C5F80845F0E7C5F81045F4E7DE
:1036D000631CC5F80845EBD04FF0000A05E0601CFC
:1036E000C5F80C45E4D04FF0010A03A80394FFF796
:1036F0009DFF039B07FA03F3C0F80C354FF0010B55
:1037000009E0C5F80845002ED7D1631CD0D04FF092
:10371000000AD3460626D9F80030019303F400527C
:10372000002A03A81CBF4FF0010A4FF0000B0394BE
:10373000FFF77CFF039A019B00EB8200C3F3C114E7
:10374000D0F80027330243EA840343EA0B0302EA7A
:103750000802134343EA4A03C0F80037A8E7C5F854
:103760000C45D0E7C5F86045621CD9F800309FD001
:10377000C3F38033002BB6D003A80394FFF756FFA2
:10378000039B07FA03F3C0F808354FF0010AD3464C
:10379000C1E7C5F86445E7E7C5F86845E4E7C5F85B
:1037A0006C45E1E76FF085005DE700BFF0F8FCFFD6
:1037B000F0B54B79012B29D0032B24D110278B791D
:1037C000032B20D1CE790EB1012E1CD10A79012A0A
:1037D0001ED0022A20D0B2B914460B684568B3F552
:1037E000164FD5F800C06ED033D8B3F5165F6DD044
:1037F0001CD8B3F5966F6BD010D8B3F5967F6AD00E
:10380000B3F5167F6AD06FF085005BE00027D6E73E
:103810004FF480740E22E0E70024FBE7B3F5166F47
:103820005FD0B3F5965FEED1384B3CE0B3F5E14F96
:103830005AD007D8B3F5615F58D0B3F5964FE2D1AF
:10384000334B30E047F61225AB42DCD14FF4000396
:1038500029E0B3F5613F4BD013D8B3F5963F4AD07A
:1038600009D84DF6C025AB4247D0B3F5614FCAD158
:103870004FF46B0317E0B3F5E13FC4D14FF0EB73A6
:1038800011E0B3F5612F3BD008D8224DAB423AD0BE
:10389000B3F5E12FB7D14FF0E86304E01E4DAB4222
:1038A000B1D14FF080530569CCF8243543683A43D1
:1038B0001B6834432243C3F86C2503C92B1D83E8DE
:1038C00003000020F0BD4FF41D03ECE7134BEAE7C3
:1038D0004FF49E23E7E74FF4A033E4E74FF41C33A3
:1038E000E1E74FF41D23DEE70D4BDCE70D4BDAE794
:1038F0004FF06C73D7E70C4BD5E74FF46503D2E775
:103900004FF07063CFE74FF08063CCE700B0130057
:1039100000A04E0090D0030040420F00005027004E
:1039200000C0750000F03A0000903A012DE9F7431D
:103930008046002201210220FEF73CFE0220FEF715
:1039400009FED8F80470D8F810603C680021C4F86B
:103950000015C6F80080D7F80C9001AA484603F07D
:10396000D8FF051E4CDB019BD9F800201979186897
:10397000FFF76CFE051E43DB311D4046FFF718FFC5
:10398000054600283CD17B68990712D506F118003E
:1039900000F0EAFF1E4B984236D1307E04F10C0253
:1039A00004F5907104F04BF8337E0120984000F04C
:1039B000C1FB0823C4F800353B7A53B9C4F8103171
:1039C000D4F810317369C4F834350123C4F838359C
:1039D00023607B689A075CBF4FF48073C4F804339C
:1039E0007B68DB0644BF4FF48003C4F804333369BB
:1039F000C4F844350023C4F848350123A360E360CC
:103A0000284603B0BDE8F0836FF00405F8E700BF77
:103A10000000AD0BF8B5044607690D4604F094F9B3
:103A2000B0B92E4B1B789BB16426606803F0A7FFEA
:103A300000BB012004F001F8013EF6D10021212055
:103A400001F0EEFEF0E786F31188BFF36F8FF5E724
:103A50004FF02003EFF3118683F31288BFF36F8FCB
:103A60006068314603F08BFF90B986F31188BFF38D
:103A70006F8FEDE74FF02003EFF3118683F3128889
:103A8000BFF36F8F6068314603F079FF0028DAD00A
:103A90003B691D70626838691368C3F844050120EA
:103AA000C3F848050020C3F82001D3F82051C3F81B
:103AB00058015268D3F85801D20608D562681268D6
:103AC0000820C2F800054FF48002C3F80423012245
:103AD0009A6081F31188BFF36F8FF8BDCA0D002083
:103AE00070B5012383400E4ABFF35B8FDC4352E87D
:103AF000001F01EA040542E80056002EF7D1BFF38B
:103B00005B8F4FF4803282400648C0F80823BFF331
:103B10005F8FBFF36F8F0B4214BF0120002070BD79
:103B2000840800200010014070B40E49D1E900342F
:103B3000D01AC31844F1000422F07F46C1E90034D2
:103B4000A6F50013B3F5400F09D2074B1B681A0AFC
:103B50001B069C19054B42F10005C3E9004570BCEA
:103B600001F0CABF4002002088080020480200205F
:103B700011B3BFF35B8F0123104A834052E800CF9B
:103B80004CEA030C42E800C10029F7D1BFF35B8F78
:103B90000B4A4FF480338340C2F80433094BBFF320
:103BA0005B8F1B68BFF35B8FC340DB0742BF064BD5
:103BB0004FF40032C3F80021704700BF8408002092
:103BC000001001408008002000E100E00D4B186863
:103BD000010A0006BFF35F8F0B4BD3F804351818AA
:103BE00041F10001B3F5801F0AD2084BD3E900234D
:103BF000904271EB030303D210F1807041F1000198
:103C0000704700BF880800200010014048020020D3
:103C10002DE9F04F85B016461F469DF840A004469A
:103C2000FFF75EFF0190FFF7D1FFB04271EB070392
:103C300054D23E4B301A67EB0101984271F10001FA
:103C40004FD23B4B03EB0413D3E902239F4208BF3F
:103C500096425ED037494FF4803804F1500508FA97
:103C600004F8AD00C1F848832046ADB203F0D0FEA1
:103C700026F07F4B05F1804504F5A87305F58835DE
:103C8000DC464FF003090293029A2CF07F4341F87F
:103C90002230C1F84483D1F80435274A6FF002007E
:103CA000C01A604420F07F40904232D9286868B141
:103CB000D1F804350393A3EB0B0020F07F40B0F55F
:103CC000000F26D9204603F0A3FE039BBAF1000F94
:103CD00007D109EB030C09F10109D5E7BAF1000F8F
:103CE00009D06FF0150520460199FFF741FF2846DE
:103CF00005B0BDE8F08F0123104ABFF35B8FA340EE
:103D000052E8000F184342E800010029F8D1BFF340
:103D10005B8F07490E98230101EB0412C8500F9BDB
:103D20005360C2E902670025DDE700BF01008000A3
:103D30003002002000100140FDFF7F0080080020BD
:103D40007FB51C4C1C4BC4F80833C4F848331B4BDC
:103D500000254FF0FF304FF0FF31C4F80855C3E99C
:103D600002014FF48033C4F80433154B02264FF49C
:103D700000320121C4F804631120C3F880212A46CF
:103D8000FEF718FC1120FEF7E5FB0E4A0123A360A5
:103D9000236013600C4B0D4A0093CDE901550023BD
:103DA0002846FFF735FF3046FFF71AFA284604B0D9
:103DB00070BD00BF0010014003000F003002002062
:103DC00000E100E084080020293B0000FFFF7F00A5
:103DD0002DE9F7432F4CD4F8043399070BD5D4F8C9
:103DE000043143B12C4A0023C4F80431D4F804311F
:103DF000136801331360D4F80433DA032AD5BFF310
:103E00005B8F264B53E8002F22F0010143E800109E
:103E10000028F7D1BFF35B8FD30702D4D4F8403129
:103E2000C3B10025C4F84051D4F84031FFF7CEFEAD
:103E30004FF02003EFF3118283F31288BFF36F8FEB
:103E4000174BD3E90267B042B94106D282F3118819
:103E5000BFF36F8F03B0BDE8F0834FF0FF384FF032
:103E6000FF39C3E90289D3E900101D604FF48033A4
:103E7000C4F84833C4F84051D4F8403182F3118873
:103E8000BFF36F8F0029E5D0009032463B462846AD
:103E90008847DFE7001001408808002080080020E4
:103EA000300200201FB5431C23D0012823DD134A14
:103EB000134B9042D4BF04461C46FFF787FE114BBC
:103EC0000F49D3E90023801AB0F5000F28BF002462
:103ED00004448C4228BF0C46A2180B4900914FF0B5
:103EE0000000CDE9010043F10003FFF791FE04B0AB
:103EF00010BD034CE1E70124DFE700BFFEFF7F00B8
:103F0000FFFF7F0040020020293B000008B5FFF7BB
:103F10005DFE024B1B68C01A08BD00BF40020020B6
:103F200010B5084C012363601120FEF721FB064BFE
:103F3000C4F80833C4F84833044B4FF40032C3F8D4
:103F4000802110BD0010014003000F0000E100E0DF
:103F5000024AD2F80034002BFBD0704700E0014049
:103F600010B54FF08053D3F830210D2A55D14FF0C2
:103F700080410022C1F80C21C1F81021C1F8382578
:103F8000464AD3F80404C2F82005D3F80804C2F85E
:103F90002405D3F80C04C2F82805D3F81004C2F89D
:103FA0002C05D3F81404C2F83005D3F81804C2F86D
:103FB0003405D3F81C04C2F84005D3F82004C2F835
:103FC0004405D3F82404C2F84805D3F82804C2F8FD
:103FD0004C05D3F82C04C2F85005D3F83004C2F8CD
:103FE0005405D3F83404C2F86005D3F83804C2F895
:103FF0006405D3F83C04C2F86805D3F84004C2F85D
:104000006C05D3F84434C2F87035D1F80034DB07BE
:1040100009D56FF00103C1F800344FF08053D3F895
:1040200030310D2B0CD14FF08053D3F834313BB1EC
:104030004FF01023D3F808224FF08043C3F85825DF
:104040004FF01023D3F80022002A03DBD3F8043208
:10405000002B22DA124901234FF01020C1F8043559
:104060001224FFF775FFC0F80042FFF771FFC0F898
:104070000442FFF76DFF0023C1F80435FFF768FF26
:10408000BFF34F8F0749084BCA6802F4E06213433D
:10409000CB60BFF34F8F00BFFDE710BD00C00040F5
:1040A00000E0014000ED00E00400FA0530B50468CE
:1040B000CCB1BFF35B8FB4FA84F3C3F11F03DBB25F
:1040C00001229A4024EA020250E8005FA54204D18E
:1040D00040E8002CBCF1000FF6D1BFF35B8FE6D1B6
:1040E00002480B7030BD0248FCE700BF0000AD0B7A
:1040F0000200AD0B10B50368CB40DB0714D40123DD
:104100008B400268BFF35B8F43EA020150E8004F27
:10411000944204D140E8001CBCF1000FF6D1BFF37B
:104120005B8FEED1014810BD0148FCE70000AD0BEC
:104130000400AD0B014BC3F80405704700F00140CB
:10414000044B1A7922B9012218601A71024870478B
:10415000024870478C0800200000AD0B0C00AD0B2E
:1041600010B54FF08043D3F8002152B10020C3F8BE
:104170000001D3F800210122C3F80823104B1B686B
:1041800098474FF08043D3F8042172B10022C3F85E
:104190000421D3F80421D3F81824D3F81824920763
:1041A00004D10122C3F818259A6010BD0222C3F879
:1041B0000823034BBDE810401B680120184700BFCF
:1041C0008C080020036803F01F025B09026004D022
:1041D000012B034818BF002070474FF0A0407047E4
:1041E00000030050034A430900F01F00D35C184449
:1041F000C0B27047CD9B000008B5FFF7F3FF034B3B
:10420000083033F81000C0F3401008BD90000020C3
:1042100008B5FFF7E7FF034B083033F81000C0F391
:10422000400008BD9000002008B5FFF7DBFF034BFE
:10423000083033F81000400B08BD00BF900000208C
:1042400070B50546FFF7CEFF0C4C08300E4634F82B
:104250001030DA0508D5C3F3432304EBC302284624
:1042600054F8333052689847A3682BB1E26831465E
:104270002846BDE87040184770BD00BF9000002080
:1042800010B5FFF7AFFF124A083032F81030D905E9
:104290001CD5C3F3432123F4F85322F8103002F164
:1042A0000E04002034F8023F13F4807F03D0C3F3E0
:1042B000432399420AD001302A28F3D1002342F83F
:1042C00031300448BDE81040FFF714BF10BD00BFF7
:1042D00090000020F8000020F0B50146104A114C73
:1042E00000200125064602F14043A3F5C2439B0886
:1042F00005FA03F3194204D0176817B1166017685E
:1043000018430432A242EED1074BD3F87C2132B1DC
:104310000022C3F87C21D3F87C3140F00040F0BD8E
:104320000061004020610040006000402DE9F04342
:1043300085B0054690461E46FFF754FF044609B374
:104340002846FFF765FF18B12846FFF755FF38BB31
:104350000023CDE900338DF80E308DF80F300DF1CC
:104360000F020B4628460DF10E0103F017FC4A4AD6
:1043700004F1080132F8113023F0020343F0010385
:1043800022F81130B8F1000F31D0284698F80070AB
:10439000D8F80490FFF73CFF20B1B9F1000F1BD013
:1043A0003E4826E03C4B04F1080C33F81C1021F089
:1043B0002001C904C90C23F81C10B9F1000F0BD05F
:1043C000032FEDD8D8F8042092F800E0A7B9344BB9
:1043D0000EF5A27E43F82E702F4A04F1080132F840
:1043E000113023F01C0343EA870322F811304EBB3F
:1043F0002C4805B0BDE8F0834FEA8E0202F18042FE
:1044000002F5C04241EA4E31D2F8100520F0030017
:10441000C2F81005D2F8100520F44F3020F4407097
:10442000C2F81005D2F81085280200F47C5040EA4A
:10443000080040EA074041F0200123F81C10C2F8B0
:104440001005C9E7D6E900762846FFF719FF002FC7
:10445000CED0114DD5E90023974201D19E4218D00C
:1044600011480DF10F01FFF721FE0E4B9842C0D10C
:104470009DF80F2045F8327005EBC20308345E60EA
:1044800035F8143043EA422343F4807325F814309E
:10449000AEE70022EEE700BF900000200400AD0B65
:1044A000006000400000AD0BF80000202DE9FF4146
:1044B00004461646FFF796FE054631B32046FFF741
:1044C000A7FE20B92046FFF797FE002860D1314FA4
:1044D00005F1080837F8183013F01C0F02D04B789C
:1044E000012B55D001238DF80F300023CDE90013A7
:1044F0004A1C8B1C20460DF10F0103F04FFB37F8CF
:10450000183043F0030327F818301EB9224804B0CE
:10451000BDE8F0812046FFF77BFEC8B31D4F96F83B
:1045200000C005F10800614637F81050890025F0F9
:10453000200501F18041ED0401F5C041ED0C27F8A3
:1045400010500023C1F810357278002ADED0D1F85F
:104550001035B67823F4991323F4F853C1F81035C5
:1045600012042302D1F810E502F4403203F47C5324
:104570001343320543EA0E0302F4801245EA4C3538
:10458000134345F0200527F81050C1F81035BDE75A
:104590000248BCE7900000200000AD0B0400AD0B0A
:1045A000014BC3E9020170479000002010B504469A
:1045B000FFF722FE50B12046FFF714FE044B0830EF
:1045C00033F8103003485B0B0B7010BD0248FCE75A
:1045D000900000200000AD0B0400AD0B70B50F4C37
:1045E00094F86C60BEB90E4D5422314604F11000AF
:1045F00003F078FFC5F87C610620D5F87C31FDF723
:10460000A9FF4FF00043C5F804330648012384F89E
:104610006C30A36670BD0448FCE700BF900000202A
:10462000006000400000AD0B0500AD0B034B93F89C
:104630006C00003818BF0120704700BF90000020B8
:1046400001460148FFF756BDF4000020014601482D
:10465000FFF72CBDF400002037B50446FFF7CCFD72
:1046600008B32046FFF7D4FD0546E0B92046FFF722
:10467000DBFD03B29B0003F1804202F5C24203F16D
:10468000804303F5C04315601268D3F8102542F04B
:104690000102C3F8102521B1144A01238340C2F856
:1046A000043303B030BD2046FFF79CFD104B0830AB
:1046B00033F81030C3F38203042B12D0052B12D031
:1046C00001A80194FFF77EFD019BD0F81015D94099
:1046D00001F001010231204603B0BDE8304003F093
:1046E000A6BA0321F7E70221F5E700BF006000400A
:1046F0009000002010B50446FFF77EFDC0B12046B3
:10470000FFF786FDA0B92046FFF78EFD0B4A012377
:104710008340C2F8083303B29B0003F1804303F5E2
:10472000C043D3F8102522F00302C3F8102510BDB2
:1047300020460021BDE8104003F079BA0060004037
:1047400073B50446FFF74EFD184E00F1080536F824
:104750001530DB0727D52046FFF7CCFF2046FFF7B3
:104760004BFD40B12046FFF75FFD114B00F5A270F5
:10477000002243F820202046FFF782FD002301A8F5
:1047800026F815300194FFF71DFD019B00EB830017
:10479000084BD0F80027134043F00203C0F800375D
:1047A000054802B070BD0548FBE700BF900000203F
:1047B00000600040F0F8FCFF0000AD0B0400AD0B02
:1047C0002DE9F04F644BD3F80403C0B285B040F03C
:1047D0000040FFF781FD051E80F2A1804FF0A0434D
:1047E000D3F820250292C3F82025D3F8202803927D
:1047F000C3F820280DF108084FF00009574B09EBCA
:10480000030B4FE093FAA3FA9BF80040BAFA8AFA36
:104810004AEA44142046FFF7E5FC514B0194083066
:104820004FEADA0233F810700AF0070301209840CB
:1048300018F8023023EA000308F8023001A8FFF755
:10484000C1FC019B03F5E073B90850F82330C7F3AE
:104850008206C3F3014A4B0737462FD5204631461F
:10486000FFF7EEFC01A80194FFF7ACFC019B03F5F8
:10487000E0735FFA8AFA50F82330C3F301439A4594
:1048800007D10021204603F0D2F95146204603F01B
:10489000CEF901A80194FFF795FC019A01239340FA
:1048A000C0F82035D8F80030002BABD108F104084F
:1048B000B9F1000F1DD14FF001099FE7BAF1020FC6
:1048C0000CD10321204603F0B2F906F00503012BB9
:1048D000DFD139462046FFF7B3FCDAE70221204654
:1048E00003F0A5F9032EF4D0BAF1030FD1D1022EB3
:1048F000EEE74FF00040FFF7EFFC4FF0A042194900
:10490000D2F820350293C2F82035D1F82025039241
:104910001343C1F820257FF46DAF25F00045012435
:1049200015B905B0BDE8F08F95FAA5F3B3FA83F396
:1049300004FA03F29B0003F1804303F5C04325EA28
:104940000205D3F81005D3F81015C0F30520C1F304
:104950000141FFF775FCE3E700600040DD9B0000CC
:10496000900000200003005001460148FFF79EBB65
:104970000001002008B5144BA8220021184603F0BE
:10498000B1FD0322026111494261114A8161C26194
:104990004FF480620262002282624262C262016659
:1049A0000C4941662021816603460267C266426760
:1049B000BFF35F8F084911F8010D98540132102A96
:1049C000F9D1BFF35F8F08BD94080020F49B00006D
:1049D000CA090020AA0900200D9C00002DE9F84F0B
:1049E000DFF87C8098F800308246894616460BB97D
:1049F000FFF7C0FF182707FB0A873D6FD7F86CB099
:104A00005D452BD9BC6E796E641BB44228BF344619
:104A100029444846224603F03DFDBB6E2544A1448F
:104A2000361BAB4208BF0025ABEB050B5E4528BF2C
:104A30005E4656B1182303FB0A833246596E484638
:104A4000294403F027FD3444354424B1182303FBE3
:104A50000A88C8F870502046BDE8F88F0024E3E7C4
:104A600094080020F8B5144B182700FB07751D4467
:104A700007FB00330E46DB6A012B14460AD0022BDB
:104A800014D023B9284603F0E1F8844208D9002461
:104A90002046F8BD284603F0D9F8844228BF0446D2
:104AA00022463146284603F0DAF8F1E72846BDE809
:104AB000F84003F0F3B800BF94080020F8B50B4BA2
:104AC0001B7804460D4616460BB9FFF753FFEFF36C
:104AD00011874FF0200181F3118832462946204684
:104AE000FFF7C0FF87F31188F8BD00BF94080020CE
:104AF000034B182202FB0033D86E1B6FC01A70479D
:104B000094080020034B182202FB00339A6A586A6B
:104B1000801A704794080020034A044B02609B1AD5
:104B20001420B3FBF0F0704778850000C8850000C2
:104B300038B503464FF02002EFF3118582F3128857
:104B4000BFF36F8F03F0DEFC064A1458184602F0DC
:104B50006FFF85F31188BFF36F8F2046BDE83840A3
:104B6000FEF74CB808000000104B70B553F8204019
:104B7000013053F82060A64200D870BDD4E900355A
:104B800095B153B12846984738B10028B8BF404284
:104B9000EB68FF28A8BFFF201870EA68537843F03D
:104BA000010353700834E6E79847FBE7788D00006F
:104BB00008B50A4B012203201A70FFF7D5FF01F058
:104BC00045F90420FFF7D0FF00F002FA01F0D4FD10
:104BD000034A137B23F00103137308BDCA0D0020A1
:104BE0000803002008B50348034A0021121A03F005
:104BF000A7F808BD20010020CC0D002070B51D4E87
:104C00001D4D1E4986B0B82303FB00661C4B05935F
:104C100001220F23CDE903320023CDE90133142310
:104C200003FB005504464FF4C070164B00954FF43B
:104C3000A07200FB0411304600F02EF9737B124A7B
:104C4000EE6023F0040373734FF4046304FB033337
:104C500013446B600D4B2C74BFF35B8F53E8001F44
:104C6000013143E80012002AF8D1BFF35B8F06B090
:104C700070BD00BF5002002040090020801E0020AF
:104C80000E9C00007F7D0000401600203C090020A3
:104C900080B50020B4B0FFF767FF2D4B83F3088881
:104CA0002C4D2D4E6B692D4F43F400736B61002426
:104CB000E02385F82230EC772C766C76AC7685F89C
:104CC00020406B6A43F4E0236B6285F82340FDF7D4
:104CD000EFFEFDF71FFC4FF0FF33AB62EB62FEF718
:104CE0003DF8FDF7A1FF40F20113ADF8243006AB0B
:104CF000B360CDE92C442F9403F016F80120FFF7A0
:104D000033FF0220164DFFF72FFF00F0FFFC154B7D
:104D100075610593012314490094CDE903434FF4D1
:104D200080623B46CDE90144284600F0B5F86A7B35
:104D3000064622F0040228466A7303F07EF82046F5
:104D4000FFF75CFF3A4631462846FDF7FFFC00BFFF
:104D5000801E002000ED00E040090020B14B000063
:104D600008030020139C000000200020F8B5054631
:104D70000E464FF02003EFF3118783F31288BFF341
:104D80006F8F064B1C6A24B987F31188BFF36F8FAE
:104D9000F8BD20463146A847646FF4E7400900207B
:104DA0004FF02003EFF3118183F31288BFF36F8F6D
:104DB000094A136A834207D15B6F136281F311883A
:104DC000BFF36F8F70471346002BF7D05A6F8242A4
:104DD000F9D1426F5A67F1E74009002010B5044647
:104DE00008B9054B9C681F2204F1780003F004FB0E
:104DF000002084F8970010BD400900202DE9F74FEE
:104E00000C4600293DD0002A3BD0477B561E084661
:104E10008FB34FF0000BDFF87090DFF870A05D46A5
:104E20005FFA8BF14FF0010808FA01F817EA080F52
:104E30001DD059F821305AF82110721B9A4228BF10
:104E40001A46019203F026FB019A37EA0807154437
:104E500004EB05000FD0A6EB0508B8F1010F28BF41
:104E60004FF001080A49424603F014FB45440BF198
:104E7000010B6019D4E700230370204603B0BDE89E
:104E8000F08F0448FAE700BF908D0000B08D00005D
:104E90001B9C0000A58F00002DE9F04F85B09846BF
:104EA00000F15803C0E916330732129B037322F056
:104EB000070A0423002601F1400B43730AF1400561
:104EC000119B837304465246C0E906660F4686600E
:104ED000C6730D445846AA21DDF84C9003F002FB3E
:104EE00029462046FDF762FC0730109B20F00700A2
:104EF000C4F8A000C4E926BA02930F9B01932D1AAF
:104F00000E9B00932A46434639462046FDF7EAFBAE
:104F10000E9BA3660F9BE366109B6665C4F86480D6
:104F200023674FF02002EFF3118382F31288BFF35F
:104F30006F8F104F3A6A62673C6283F31188BFF348
:104F40006F8FB9F1000F11D01F22494604F178008C
:104F500003F052FA84F89760BB680BB1D3F8A43021
:104F6000C4F8A430284605B0BDE8F08F84F87890E6
:104F7000F2E700BF40090020F0B587B00025059595
:104F8000109D04950F9D03950E9D0295DDE9127607
:104F90000D9D01950C9D00950446FFF77DFFB6F130
:104FA000FF3F08BFB7F1FF3F05D056EA070305D121
:104FB000204600F02BFB204607B0F0BD03493A46DF
:104FC000334604F1180000F021FDF4E7C37E000031
:104FD0002DE9F043294C2A4D87B02646AE4204F114
:104FE0002C040FD300F062FB244CDFF898904FF4B0
:104FF000004640F2E737AC4220D307B0BDE8F043AB
:1050000000F068BB54F8043C059354F80C3C04933E
:1050100054F8103C039354F8143C029354F8183C91
:10502000019354F81C3C009354E9092354E90B0103
:10503000FFF732FF54F82C3C5E65CEE7636A5A1CDA
:105040000DD023EAE37300213846C3FB060151EA81
:10505000C333D4F8008004D1404600F0D7FA2C3492
:10506000C9E74FF47A720023FBF74AF802460B4671
:1050700008F11800494600F0C9FCF0E74887000035
:1050800048870000C37E00000048704700630403A7
:105090002DE9F341044617461E464FF02003EFF377
:1050A000118883F31288BFF36F8FC368334A7BB1D3
:1050B00080689168884219D057EA060318D188F3AE
:1050C0001188BFF36F8F6FF00F0002B0BDE8F08161
:1050D000916891F90E1021610133E3609368A36038
:1050E00088F31188BFF36F8F0020EEE72169F2E7A4
:1050F00091F90E1090F90E309942A8BF19466FF041
:105100007E029142B8BF11468B422EDD02F043FE73
:105110000546CDE900761A482246414600F000FADD
:105120000028E1D04FF02003EFF3118683F31288BB
:10513000BFF36F8FA068D0B1236821699C420AD069
:105140004BB193F90E309942A8BF19466FF07E0318
:105150009942B8BF194602F01EFE40B108483146D8
:1051600000F042FA6FF00A00AFE70025D1E7002D0A
:10517000F4D186F31188BFF36F8FF3E74009002065
:10518000CB0D002038B58368044673B31A4A926881
:1051900093422DD1C368012B03D9013BC36000208A
:1051A00038BD4FF02003EFF3118583F31288BFF36E
:1051B0006F8F0169806802F0EEFD204602F09CFED0
:1051C000A06060B190F90E2022610022C0F8B020EA
:1051D00002F033FE0948294600F006FADFE7E060F6
:1051E00085F31188BFF36F8FD9E76FF01500D7E70C
:1051F0004FF0FF30D4E700BF40090020CB0D002066
:1052000038B504464FF02003EFF3118583F312887D
:10521000BFF36F8F02F070FE50B10022C0F8B020D3
:1052200002F00BFE29460848BDE8384000F0DCB922
:10523000D4E902329A4218BF0133A360022104F17B
:10524000100003F04CF8EDE7CB0D002013B54FF044
:105250002004EFF3118184F31288BFF36F8F846809
:1052600044B1013C846081F31188BFF36F8F00204B
:1052700002B010BD52EA030406D181F31188BFF3D6
:105280006F8F6FF00F00F3E7CDE90023024602486D
:1052900000F046F9ECE700BFCB0D0020C3897F2B5F
:1052A00012D80A4B1B6863B1094B90F90E201B689A
:1052B0009A4209DB437BDB0606D1064BC31A18BFB3
:1052C000012303F0010070470023FAE76C09002076
:1052D0006809002050020020044BC01A044BC01083
:1052E0005843044B01221A54704700BFC0030020EA
:1052F000ABAAAAAACB0D002070B50E4B0E4C1E7C9B
:1053000006EB460304EBC3040546204602F062FEAA
:105310000A4B002228469A55FFF7C0FF48B1084BB8
:1053200008491A68013A2046D317BDE8704000F0DA
:105330006DBB70BD40090020C0030020CB0D0020D4
:105340006C090020D952000038B50D4D2B4653F89A
:10535000184F9C4200D004B9EC68AB6838B95A7B4E
:10536000D20604D1A26912B9DA897F2A05D89C42F3
:1053700002D02046FFF7C0FF23466B6138BD00BF57
:105380004009002070B590F90D20437B002A0146AA
:1053900004DA03F07F03437302F00CFD4B7B154AE4
:1053A00063F07F0310464B7350F8183FD469834273
:1053B00008BF002323B9C1E900042160D1610CE0DA
:1053C00091F90E5093F90E60B5420ED0AE420CDD4D
:1053D0005868C1E90030016059609068431A58422A
:1053E000BDE870405841FFF7AFBF9C42E3D01B6857
:1053F000E0E700BF4009002070B490F90D30427B17
:10540000002B29DBD30627D183692BBB134962F01C
:105410007F0242730A4652F8184F944218BF23463F
:10542000CC6923B9C0E900242060C8610CE090F980
:105430000E5093F90E60B5420AD0AE4208DD5A68AC
:10544000C0E900321060586070BC0020FFF77CBFDC
:10545000A342E7D01B68E4E770BC70474009002016
:1054600008B590F90D20437B002A014604DA03F0C9
:105470007F03437302F09EFC044B9868431A584222
:105480005841BDE80840FFF75FBF00BF400900205A
:1054900070B515461C46064602F0A7FCB4F1FF3F66
:1054A00008BFB5F1FF3F08D02A46234606F1180091
:1054B0000249BDE8704000F0A9BA70BDC37E00008B
:1054C00038B54FF02003EFF3118583F31288BFF353
:1054D0006F8F104B104A9C681068A04206D1FFF7EE
:1054E0000BFF85F31188BFF36F8F38BD00211B7C44
:1054F00011600A4AD35C002BF3D02046FFF7CEFEA2
:105500000028EED0637BDB0602D12046FFF73AFF8E
:105510002046E4E74009002064090020CB0D00206C
:1055200070B50C480C4D86682E600C461146DDE9BE
:1055300004234FF02006EFF3118586F31288BFF3A2
:105540006F8F8068FFF7A4FF2046BDE87040FDF72D
:1055500069B800BF4009002064090020F8B504467E
:105560004FF02003EFF3118683F31288BFF36F8FA0
:10557000437BDA0649B219D18569BDB903F07F03CF
:10558000437302F017FC437B164A817363F07F0379
:105590004373134653F8180F984218BF0546D06955
:1055A0005DB9C4E900300460D46111E0A17300204A
:1055B00086F31188BFF36F8FF8BD95F90E70B9426D
:1055C0000BD08F4209DD6B68C4E900531C606C602E
:1055D0000120FFF7B9FE0120EAE7A842E1D02D68DB
:1055E000DEE700BF4009002049B9EFF3058030B97C
:1055F000054B5A699B689A4201D0FDF713B881F3B5
:105600001188BFF36F8F70474009002010B54FF02D
:105610002002EFF3118482F31288BFF36F8F427B75
:10562000510704D484F31188BFF36F8F10BD22F0AB
:1056300004024273FFF7E0FE21460248BDE8104035
:10564000FFF7D2BFCC0D002070B50446183002F031
:10565000C1FC4FF02003EFF3118683F31288BFF3F0
:105660006F8F94F90D20637B002A05DA03F07F0326
:105670006373204602F09EFB0B4D637BA86843F0EA
:1056800010036373031B58425841FFF75DFE86F316
:105690001188BFF36F8FAB68A34203D1BDE87040A0
:1056A00002F06ABC70BD00BF400900204FF020032B
:1056B000EFF3118183F31288BFF36F8F044B9A6865
:1056C000D37B013BD37381F31188BFF36F8F704796
:1056D0004009002010B54FF02003EFF3118483F34D
:1056E0001288BFF36F8F084B9A68D37B0133D37353
:1056F0000020FFF729FE84F31188BFF36F8FBDE808
:10570000104002F039BC00BF40090020024B03F1F9
:105710001802C3E90622704740090020F8B54FF08F
:105720002003EFF3118583F31288BFF36F8F1949BC
:105730008868437B03F07F03437302F03BFB8B6875
:105740005A7B084662F07F025A7350F8182FCC69D2
:10575000824208BF002222B9C3E900042360CB6162
:105760000CE093F90E6092F90E70BE420ED0B74273
:105770000CDD5168C3E900210B6053600120FFF785
:10578000E3FD2846BDE8F840FCF74CBFA242E3D059
:105790001268E0E74009002050EA01032DE9F041DA
:1057A00005460E4603D1FFF7B9FF00202CE0831C0D
:1057B00071F1FF332ADB02F023FC2C184FF0200399
:1057C000EFF3118883F31288BFF36F8F114F124BE1
:1057D000B8681860FFF744FEB86810492A46334697
:1057E000183000F013F9BA68537B43F01003537379
:1057F0004046FCF717FF02F003FC201A63EB03039B
:10580000012873F10003D0DBBDE8F0816FF00104E3
:10581000241AD3E74009002064090020C37E000059
:10582000B1F1FF3F08BFB0F1FF3F08B506D1084B0B
:105830009868FFF709FF4FF0FF3008BDFFF7ACFF96
:105840004FF47A7380FB0303C00B40EA4340F4E754
:1058500040090020014B9868704700BF40090020B4
:105860002DE9F04104464FF02003EFF3118683F356
:105870001288BFF36F8F037BD9070BD586F311888E
:10588000BFF36F8F404080F311884FF0040002DFB8
:10589000BDE8F081437B1A0704D586F31188BFF376
:1058A0006F8FF5E723F0200242F00801D20923D1DF
:1058B0004173A36813B1204602F084FA04F1180082
:1058C00002F088FB04F158074FF00008A56DBD42B7
:1058D00000D0CDB90120FFF737FD2046FFF760FA71
:1058E000104B9B68A342D8D1EFF30583002BD4D192
:1058F0003046FCF797FED0E703F05F0343F0080360
:10590000437302F057FAD4E7284602F05BFA05F138
:10591000180002F05FFBC5F8B0802846FFF76CFD69
:10592000D4E700BF40090020D3B5DDE90667089C35
:10593000CDE90067FFF7F4FD1CB1034B9B685B6981
:10594000236002B0D0BD00BF4009002008B5064862
:10595000064A0749121A02F0F5F9BDE80840054A5F
:105960000549064802F0EEB9000000201C010020A5
:10597000949D000000000000949D000000000020A5
:10598000034B1B680BB9FEF7C1BA0020704700BF7C
:105990007009002010B50E4B1C689C4204D1FFF723
:1059A000EFFF6FF0004010BDFFF7EAFF002CF8D0CA
:1059B000D4E904321B1A62EBE072B3F1004F72F1CA
:1059C0000001EEDA002AACBF18460020EBE700BF6A
:1059D0000401002030B570B10B4B5B6898420AD0CF
:1059E000036843B1D3E90421D0E90445121941EB1E
:1059F0000501C3E90421D0E9003213605A60002395
:105A0000C0E9003330BD00BF04010020B3F1FF3F07
:105A100008BFB2F1FF3FF8B504461D4616465CD0FC
:105A200081604FF02003EFF3118783F31288BFF3F7
:105A30006F8F013275F1FF3324DA2D49D1E900204F
:105A40006FF001039B1A4FF0FF3262EB00009E1BC8
:105A500060EB0500012E70F1000301DA0126002041
:105A6000C4E90460234ED6F800C07568B44508BF89
:105A70004FF0000CBCF1000F0DD1C4E900652C60A3
:105A800074601CE0FFF77CFF013645F10005361815
:105A900045EBE070E4E7DCE90420D4E9043193420B
:105AA00071EB000E1ADAD21ADCF8043060EB010058
:105AB000CCE90420C4E900C31C60CCF8044033687E
:105AC000B34206D09C4204D1FFF764FF0021FEF7E9
:105AD000E9F987F31188BFF36F8FF8BD9B1A61EB6B
