:10000000C02B0020C52C0000C17C0000992C0000F2
:10001000992C0000992C0000992C00000000000091
:100020000000000000000000000000009D2800000B
:10003000992C00000000000035280000992C0000D9
:100040005D2900005D2900005D2900005D29000098
:100050005D2900005D2900005D2900005D29000088
:100060005D2900005D2900005D2900005D29000078
:100070005D2900005D2900005D2900005D29000068
:100080005D2900005D2900005D2900005D29000058
:100090005D2900005D2900005D2900005D29000048
:1000A0005D2900005D2900005D2900005D29000038
:1000B0005D2900005D2900005D2900005D29000028
:1000C0005D2900005D2900005D2900005D29000018
:1000D0005D2900005D2900005D2900005D29000008
:1000E0005D2900005D2900005D2900005D290000F8
:1000F0005D2900005D2900005D2900005D290000E8
:1001000053B94AB9002908BF00281CBF4FF0FF317E
:100110004FF0FF3000F00CB8ADF1080C6DE904CEE3
:1001200000F008F8DDF804E0DDE9022304B07047D0
:10013000704700BF2DE9F04786468C460846089E6A
:10014000154674461946002B40F0C2808542B2FA2B
:1001500082F245D94AB1C2F1200300FA02FC2EFA1C
:1001600003F3954043EA0C0C94404FEA154EA8B2B5
:10017000BCFBFEF8230C0EFB18CC08FB00F943EA8D
:100180000C43994528D9EB1808F1FF3704D299455B
:1001900002D9A8F102072B44A3EB0903A4B2B3FBD5
:1001A000FEFC0EFB1C330CFB00F044EA0344A042AF
:1001B00014D92C190CF1FF3304D2A04202D9ACF1AE
:1001C00002032C44241A43EA07401EB1D440002302
:1001D00034607360BDE8F0874746DDE76346F1E7CA
:1001E00092BB431B01214FEA154EAFB2B3FBFEFC9D
:1001F000200C0EFB1C330CFB07F840EA0343984528
:1002000062D9EB180CF1FF3004D2984502D9ACF159
:1002100002002B44A3EB0803A4B2B3FBFEFC0EFBCD
:100220001C330CFB07F744EA0344A7424ED92C19B0
:100230000CF1FF3304D2A74202D9ACF102032C44E3
:10024000E41B43EA0040C0E7C2F1200320FA03F1B7
:10025000954090402EFA03F303434FEA154EAFB298
:10026000B1FBFEFC0EFB1C10190C0CFB07F841EA5D
:100270000041884504FA02F422D969180CF1FF30D4
:1002800004D2884502D9ACF102002944A1EB08014F
:100290009BB2B1FBFEFC0EFB1C110CFB07F743EA03
:1002A00001439F420ED9EB180CF1FF3104D29F425B
:1002B00002D9ACF102012B44DB1B41EA004192E779
:1002C0006046E3E76146F7E76046A3E76346B7E7C2
:1002D000834206D916B9002108467BE7C6E900E04B
:1002E000F9E7B3FA83F78FB9834201D3724508D88F
:1002F000BEEB020460EB030301209C461EB9002103
:1003000068E73846FAE7C6E9004CF8E7C7F1200C81
:10031000BB4022FA0CF41C432EFA0CF120FA0CF329
:10032000B84001434FEA14490EFA07F5B3FBF9F858
:100330001FFA84FE09FB18300B0C08FB0EFA43EA87
:1003400000439A4502FA07F240D9E31808F1FF305A
:1003500004D29A4502D9A8F102002344A3EB0A0370
:1003600089B2B3FBF9F809FB183308FB0EFE41EA2A
:1003700003418E452CD9611808F1FF3304D28E4514
:1003800002D9A8F10203214443EA0040A0FB0298ED
:10039000A1EB0E014145CE46434602D306D14D4561
:1003A00004D2B9EB020E68EB04030138002EA6D08C
:1003B000B5EB0E0261EB030101FA0CFC22FA07F324
:1003C0004CEA0303F940C6E9003198E74046C5E727
:1003D0004346D9E710F8012B11F8013B012A28BF49
:1003E0009A42F7D0D01A7047034611F8012B03F850
:1003F000012B002AF9D17047034613F8012B002A7C
:10040000FBD1181A0138704707B5054B00935368A4
:10041000044A082107F0B9F8002003B05DF804FB96
:10042000481100207496000073B596680546304662
:100430001446FFF7E1FF052808D063680A4A012146
:10044000284607F0A2F8002002B070BD074B3146E5
:100450000622184608F071FB00906368044A0821E0
:10046000284607F092F8EEE77F960000481100203A
:100470007496000010B5044600214FF4803005F05A
:10048000CBFB2046024A082107F07FF8002010BD70
:100490009A96000010B5044600214FF4004005F084
:1004A000BBFB2046024A082107F06FF8002010BD70
:1004B000A49600002DE9F04107460E46154600F0CF
:1004C0008FF8C36804461BB943691A78002A41D1E2
:1004D0000023E3606368BB4256F8232008DB324BFD
:1004E0006361204600F062F84FF0FF30BDE8F08114
:1004F000511C616192F80080B8F12D0FEFD1911C71
:1005000061615178A1602D2904D192786AB90133D3
:100510006360E4E749B9244B63614146284608F02B
:1005200038FB0028DDD0C4F80880D4F808802846BD
:10053000414608F02EFBB8F13A0F636900D070B95C
:100540001B7813B9636801336360204600F02EF80E
:100550003F20CBE75A1C42611B788360E5E7427875
:100560003A2A0BD0002222611B7813B96368013349
:100570006360204600F01AF8A068B7E71878626850
:10058000094928B901329742626004DD56F82230E9
:10059000C4E90431EAE761612D783A2D2046D5D1CE
:1005A00000F004F82846A1E749980000074B0268CC
:1005B0001A60074B42681A60064B82681A60064B45
:1005C000C2681A60054B02691A6070471C0000205F
:1005D00018000020980500209405002090050020B8
:1005E0000048704700000020014B1B68184700BFFF
:1005F00020000020014B1860704700BF2000002041
:1006000030B585B004460D4610220021684608F03A
:1006100055FB02238DF802302A46044B01932146F4
:10062000684606F04DFA05B030BD00BFE905000090
:1006300080B505460E461746984605F007FB03466B
:1006400008F04CFBDFF81890044649F800304246A9
:1006500030463946A84754F8090002F0BBFB00BFFA
:10066000080000002DE9F047058B04462807904656
:1006700011D4022905F0070540F0CD80204606F090
:10068000E0FC78B10138218B042811D8DFE800F0B4
:10069000C3106D85950001290CBF45F0100545F08C
:1006A0002005258388F31188BFF36F8FBDE8F0879D
:1006B00001F0070AAA4500F0A6800027B9463E4689
:1006C000A368002B00F0BD8041F00801218388F36E
:1006D0001188BFF36F8FA168002900F0BB800D68FF
:1006E000002900F0B780D1F80480334652462046F6
:1006F000C047002D76D02B6829461D46F0E701F053
:1007000007035A1F012A1BD8002221F00701062BDC
:10071000276889B2C4E9002209D13B4603E0628B15
:10072000013262831B68002BF9D141F00201218361
:10073000204606F086FC00287BD041F0200177E0BF
:10074000042B0AD121F0070189B22183204606F04B
:1007500078FC10B141F020012183218B01F0070AC0
:10076000AA4550D00027B946AAE7236921F007011E
:1007700041F00601062DD3F8009021832DD1B9F167
:10078000000F40D041F00801218388F31188BFF3A6
:100790006F8F3A492046C84729E021F007012369B5
:1007A00041F0040189B2042DD3F804902183E6D0EE
:1007B00000273E464FF0040A82E721F00701236933
:1007C00041F0050189B2052DD3F808902183D6D0D8
:1007D00000273E464FF0050A72E700273E464FF0DD
:1007E000060A6DE72B4687E7B9F1000FD1D14FF02C
:1007F0002003EFF3118883F31288BFF36F8F238BED
:1008000023F008032383258BEA062ED525F0100359
:10081000238305F007056669218B002EBFF66FAFB5
:1008200000232768C4E9003321F0070141F00101EA
:100830002183218B01F0070AAA454FF000097FF4BC
:100840003FAF002F9BD041F00801218388F311882E
:10085000BFF36F8F002FC7D03D68394633465246ED
:10086000204606F01AFC2F46F4E7AB067FF51AAFD8
:1008700025F02003238305F00705FFE6C77000007D
:1008800008B504464FF02002EFF3118382F312887B
:10089000BFF36F8F03F052FC204602F045FA034885
:1008A00006F059FB01F028FFFCE700BF1A97000093
:1008B00003F076BC13B5044604F0E2FDC0F3072351
:1008C0000193C0F307430093044A030E0821204616
:1008D00006F05BFE002002B010BD00BF4397000091
:1008E00038B5044607F07CFF4FF47A75A0FB05236A
:1008F00005FB0133D20B42EA43432046024A08215A
:1009000006F043FE002038BD5C97000010B5044699
:1009100003F00AFC084A03460821204606F035FE8B
:10092000064A2046082106F030FE0548214604F01C
:1009300019FC002010BD00BF6B9700008A970000D3
:100940004509000070B58EB004460D46D0F89C6095
:1009500007F0ECFD024608F0C1F9254B1958254B6C
:10096000002A18BF1346CDE90043234A234B2846EB
:100970008C4218BF1346224A082106F006FED4E92D
:100980000A23CDE9022394F90E300093237B1D4AFC
:100990002846082106F0F9FD06A92022204604F089
:1009A00029FC626E00920346174A0821284606F089
:1009B000ECFD05A9204607F0C9FD034630B1134AF6
:1009C0000821284606F0E1FD0EB070BD059A6423AB
:1009D000B11ACDE900214B430D4AB3FBF6F30821D0
:1009E000CDE902632846334606F0CFFDECE700BFB1
:1009F00008000000949700002F9F00009BA60000B5
:100A000097970000A3970000CF970000E69700009B
:100A100013980000F0B5002593B0044629460AAFAC
:100A20001C220BA808F04AF9144E1A22202138463D
:100A300008F044F92146124804F094FB09AA4FF447
:100A40000061304607F076FD09996422C1F5006027
:100A500042434FF40063D20ACDE90403CDE90231E9
:100A600006922046CDE90057064AA6F14003082128
:100A700006F08BFD284613B0F0BD00BF401E0020DD
:100A8000F90A00004A98000010B5044607F0BCFBC4
:100A9000034A03460821204606F077FD002010BDDA
:100AA0009398000073B5134600220192044601AAF0
:100AB00058680A2101F0DCF9019D95B920EAE0743B
:100AC0004FF40046294640F2E7304FF47A72002393
:100AD000C4FB0601FFF714FB05F09EF8284602B0A0
:100AE00070BD2B46034A0121204606F04EFD019DB4
:100AF000F4E700BFA9980000F0B50446D0F89C6068
:100B000089B00D4607A907F021FD034630B1104A10
:100B10000821284606F039FD09B0F0BD204607F04F
:100B200005FD0C4F079A002818BF0746B11A642329
:100B3000CDE902214B43CDE90076B3FBF6F3064A3B
:100B4000CDE9046308212346284606F01EFDE3E7AD
:100B5000E697000094970000C99800002DE9F04343
:100B600087B00546684604F093F9009E184A194F6D
:100B7000DFF86480DFF86490142303FB006608212B
:100B8000284606F002FD009CB44203D3002007B0C3
:100B9000BDE8F08323680BB11A7832B923463A4690
:100BA000142101A805F08CFE01AB4246082128461D
:100BB00006F0EBFC204607F059FC094B094A0028D7
:100BC00008BF4B460821284606F0DFFC1434DBE75B
:100BD000F0990000FA990000FF990000E7990000E1
:100BE000E1990000049A00008B1E022B2DE9F041D0
:100BF00007468846144637D860681022002105F061
:100C0000FBFEB8F1020F064607D1264A2023082131
:100C1000384606F0BAFC336816E00A220021A068C4
:100C200005F0EAFEC5B21F4A2B460821384606F0F9
:100C3000ACFCB8F1040F1AD0102D0DD0202DEAD045
:100C4000082D0CD13378DBB2174A0821384606F05C
:100C50009CFC0020BDE8F08133889BB2F4E7134A86
:100C60000821384606F091FC6FF01500F2E7E068C5
:100C70001022002105F0C0FE0D4A0346044608215B
:100C8000384606F082FC102D06D0202D07D0082D06
:100C9000E5D1E4B23470DCE7A4B23480D9E7346043
:100CA000D7E700BF3F9A00006A9A0000549A0000FC
:100CB0007B9A00002DE9F04F584BDFF864A1914674
:100CC0004FF0FF35012285B0074688461A6020267E
:100CD0002C46494652464046FFF7ECFB411C07D1E3
:100CE0006A1C52D14F4A0121384606F04EFC1DE0E5
:100CF000732820D0772833D0612817D1DFF828B1A6
:100D00001022DBF80000002105F076FE05460028E1
:100D1000DFD107F0E3FF454B1B58162BD9D1DBF889
:100D20000030434A0121384606F02FFC6FF01500D1
:100D300005B0BDE8F08FDFF8F0B00022DBF800006E
:100D4000114605F059FE04460028C2D107F0C6FF3F
:100D5000364B1B58162BBCD1DBF80030354AE1E787
:100D6000DFF8C4B00022DBF80000114605F044FEB5
:100D700006460028ADD107F0B1FF2C4B1B58162BAF
:100D8000A7D1DBF800302C4ACCE7631C01D12B4AF9
:100D9000A9E75FFA86F8C6F3C406002C3CD06B4680
:100DA00029461A46A6EB050C0CE0B8F1100F1DD031
:100DB000B8F1200F20D0B8F1080F2AD108781870A8
:100DC00031443344A64203D80CEB01001028ECD97F
:100DD000102CA14628BF4FF0100929464B46384633
:100DE00000F03AFE1035A4EB0904D6E7088880B27B
:100DF0001870000A5870E3E7086818704FEA102E60
:100E000083F801E04FEA104E000E83F802E0D8703C
:100E1000D6E70B4A082167E7204689E7180000203B
:100E2000C99A0000D09A0000900500200C00000034
:100E30008F9A0000A29A0000B59A0000ED9A000077
:100E4000549A000070B5104E044633780D4681B1B7
:100E50002BB1BDE870400D4A012106F096BB01237D
:100E600033700B4A0821204606F08FFB01233370B4
:100E700004E083F001033370002BF2D129462046B1
:100E8000BDE8704006F0A6BB4E110020079B000095
:100E9000429B000070B504463C480378182B02D1F1
:100EA0000B78112B31D0013A0B468D18AB4225D16E
:100EB0008B5C0A780370A2F13003092B344C04D9FF
:100EC00022F02003413B052B04D823683149CA5442
:100ED000013323602368022B34D110222D480021D6
:100EE00005F08AFD2C4A136803F8010B13602B4AA6
:100EF0001368013313600023236023E013F8016BB0
:100F0000182ED3D11E78112ED0D1244D244A2B680F
:100F10000821204606F039FB20460021FFF792FF0A
:100F2000204B187870B9204A2B681168042B0ADC12
:100F300008B111602B6013F003010BD11268136824
:100F40001BBA136070BD086800BA41F8040B043B7B
:100F50000120EBE75B4203F0030358BF594202292B
:100F600004D1126813885BBA9BB2EAE70329E9D17E
:100F7000106802681104C2F3074301F47F010B43B8
:100F800002F47F4213430360DCE700BF4F110020EF
:100F90009C05002051110020A8050020A00500207C
:100FA0006C9B000050110020A40500202DE9F84F93
:100FB0000C462B49DFF8AC80DFF8AC90DFF8ACB022
:100FC00000230B602A4988F8003006460B6015465E
:100FD000012C2F4655F804AF1ED90222494650462F
:100FE00007F0E4FD80B99AF80220003A18BF012208
:100FF000924420490222504607F0D8FD30B901231F
:1010000088F80030013CE3E70022F1E7494650460A
:10101000FFF7E0F9A8B9043700221146786805F017
:101020007BFC154B002211461860786805F074FCB3
:10103000124B134918603046FFF704FF0020BDE84B
:10104000F88F9AF800202D2AE6D19AF80120002A7C
:10105000E2D053465A460821304606F096FAD1E7C8
:101060009C05002050110020869B00008C9B0000F6
:10107000A0050020899B0000A8050020A4050020F1
:10108000950E000038B51C460B4B4568187870B1BA
:10109000002003F0A3FE2060002003F0EFFE0028F4
:1010A000FAD12B68296C01209847002038BD03F045
:1010B000C1FE2060F5E700BF5311002008B531B133
:1010C000044B406801221A70083007F097FB00209B
:1010D00008BD00BF5311002013B5064A0648126828
:1010E000002400940123214600F0ACFB204602B00E
:1010F00010BD00BF10920000988F000037B5446803
:101100000A49226004F1080523640022284607F0FA
:1011100069FB4FF4A472E46300232846CDE9002361
:1011200004F0DCFF002003B030BD00BF47730000B7
:1011300010B581680446083101F0AEF8A168034A91
:1011400020460831BDE8104001F04CB8FF9C00007B
:1011500038B58368D3F86432DB0704461CD4406892
:1011600003685B689847054620B9E06806F0DDFC37
:10117000A3681D71A3685B6B13B12946204698478D
:10118000A36807F0ABFD0022C3F80C23044B1858EA
:10119000BDE8384001F01EBE6FF00F05EAE700BF62
:1011A0000800000010B5836802221A7183689B6BE7
:1011B0000446BBB906F0DBF88368D3F86432DB047D
:1011C0000BD50321084B094A06F0A7FBA0686FF472
:1011D000805100F5197006F0E2F82046BDE8104095
:1011E00000F070BF10BD00BF0D9D0000019A00000F
:1011F0002DE9F04FA7B004465422002111A807F0B2
:101200005DFD0023CDE90533A368204642330293F8
:1012100006F010FB204606F0B5FA18B99D49606942
:1012200006F0E8F8A06814220021083007F046FD17
:10123000204600F0E5FDA168E0688A8F4231002673
:1012400006F07FFC204606F0FEFC4FF0FF37B2466A
:1012500003960DF14408B3463546B146DDE9053243
:10126000012A6DD0132B6ED85FBBBBF1000F0AD0E3
:10127000204606F008FDA2681423423211A90DEBA6
:10128000030000F071FCB9F1000F0CD099F8113097
:10129000FE2B08D1059B26AA02EB830252F8542CA0
:1012A0000AB101330593A068059D4369002B40F006
:1012B000B680CEB1C3689E422DD00D9600F10805D0
:1012C00024E0029A0223414606A800F04DFC06994C
:1012D000D8F804200292034631B101290AD148B15D
:1012E0006D4A204606F019FB6FF00705284627B027
:1012F000BDE8F08F059B002B34D0D8F8000000F03B
:10130000EBFF98B166B1A5680D9608350CAE0FCE0F
:101310000FC533682B602046FFF70AFF0125E5E77C
:101320005E4A0121204606F0F8FADDE7059BCBB1C5
:10133000D8F800202946204601F07AF8022809D181
:10134000059B132B91D9069B022B8ED1544B554AEA
:101350000121C6E7032805D0059B013305934FF013
:10136000010B7BE7039B33B9D8F8001007AA484666
:1013700006F0BDF9054608F10408013F9DB3EB688E
:10138000BBF1000F08D0F3B1204606F053FA204617
:1013900006F00FFA444AC4E7ABB1A368DDF814A025
:1013A000AE4603F1080CBEE80F00ACE80F00DEF813
:1013B0000030CCF80030AB682BB96B7CFE2B04BF3F
:1013C0002F7C07F1FF37D5F804C0BCF1000F08D01F
:1013D000AE46BEE80F000CAE0FC6DEF8003033603C
:1013E0006646A94603E0059B53B101230393069B80
:1013F00017B9022B7FF432AF059B013305932DE71C
:10140000A368DB6913B1DB68002BEED1274B009397
:10141000274A119B0121204606F07FFAE5E7037E6B
:10142000A5EB0A05B3B1417E4FF6FF72FF2918BF45
:101430000A469D4202D313449D420BD983681D4A3C
:101440000121204606F069FA2046FFF771FE6FF091
:1014500015054BE7012105F0E6FFA06800F53E7099
:1014600006F04CF8A36811AA294602EB8A025B69D0
:10147000204698470546A0684FF0FF324FF0FF33F3
:1014800000F53E7005F0C3FFA068002105F0CBFF1A
:101490002CE700BF48980000519D0000659D0000AA
:1014A000C69D00007B960000839D0000B29D000059
:1014B000B89F0000EA9D000070B50446806886B0C1
:1014C000012100F5197005F05BFFA3681B79022B61
:1014D00020D100230193A36860689E6B03681D6997
:1014E00001AB0EB3102202A9A847019B93B1A068DB
:1014F000012105F098FF019A02A92046B047A06893
:10150000002105F090FFA3689B6B002BE3D12046E0
:10151000FFF748FEA0686FF0010100F5197006B0F2
:10152000BDE8704005F03BBF01220DF10301A84763
:10153000019B002BEED09DF903109DF80330A268AB
:101540000029C8DB5179032900F27581DFE811F029
:101550000400F2000A0173010D2B56D00A2B32D081
:10156000B2F864126FF3CA01A2F86412092BA068E2
:1015700060D014D8002BAED0082B5ED05A1CAF49D7
:10158000A068D2B28A5C12F0970F62D0012105F0F8
:1015900055FF9DF80310204600F05EFD9BE71B2BD6
:1015A00045D07F2BEAD1D0F860329B0793D501213B
:1015B00005F044FFA368D3F860321E0745D42046E7
:1015C00006F0ECF987E7D2F86412C1F3C70129B13C
:1015D000D2F86412C1F3C7010A29CFD1B2F864125C
:1015E00063F3CA01A2F86412A568A98FC9B9284695
:1015F00005F024FFE06806F06AFA9149606905F099
:10160000F9FE2046FFF7CEFD65E7D2F86412C1F37C
:10161000C7010029E2D0D2F86412C1F3C7010D2935
:10162000DBE72046FFF7E4FDC5F81003E9E70123F7
:10163000437150E7D0F860324DE7D0F860329A0736
:101640007FF549AF012105F0F9FE204606F0C1F90A
:1016500041E7D0F8602295077FF53DAF013B162B9F
:101660003FF639AF01A252F823F000BF0518000081
:10167000C9160000D1160000BF150000F9170000C0
:10168000F1160000D7140000D7140000D714000092
:10169000D7140000F916000001170000D71400004D
:1016A00009170000D714000013170000D71400001A
:1016B000D7140000D7140000D7140000171700003B
:1016C000D71400002D170000204606F0BAF802E7F4
:1016D000204606F0AFF8204606F054F818B95849ED
:1016E000606905F087FEA068012105F0A7FE88E784
:1016F000204606F0AEF8EEE6204606F0B3F8EAE63D
:10170000204600F0DFFCE6E60021204605F0A0FEC2
:10171000E1E60121F9E7204606F086F8204605F0CB
:1017200026FEA068012105F089FED4E6204600F0DF
:1017300013FCF6E75B2B02D102235371CBE6D2F800
:101740006022900706D5622B08D14FF0FF3120466A
:1017500000F0BEFBA36800225A71BCE6662BF9D1EB
:101760000121F4E700215171A268D2F860128907C3
:101770007FF5B1AE313B1B2B3FF6ADAE01A151F869
:1017800023F000BF011800000D180000251800000C
:10179000F5170000D7140000D7140000D71400007C
:1017A000D7140000D7140000D7140000D71400008D
:1017B000D7140000D7140000D7140000D71400007D
:1017C000D71400001317000009170000F1160000DD
:1017D000C9160000D7140000F9170000D714000044
:1017E00005180000D7140000D7140000D71400001B
:1017F0001118000003235371204606F01BF86AE617
:1018000003235371204606F00FF864E60323537157
:10181000A068D0F8601201F0010181F0010105F02B
:101820005EFE58E603235371A368D3F860329B072A
:101830007FF551AEC3E600237FE700BF8DA5000012
:10184000489800002DE9F047044680688846D0F8A3
:101850000C1388B015461F46002968D192464FF4F4
:10186000457207F02BFAA36822681A60E06806F058
:10187000D0F9A06800F53E7006F081FE4FF42A7999
:101880004FF41A76A068304407F023F9A0680022CC
:10189000831901214844103607F0FEF8B6F52A7F77
:1018A00009F11409EED1A36900221A60A06802218F
:1018B00000F5197005F064FDA36850225A85A368ED
:1018C00018221A85A668306805F08EFD86F82C006F
:1018D000A368184A25F0340565F3070AC3F860A227
:1018E0006068036841461D682346A8470546D0B98D
:1018F000A36801221A71D4E9090100220023CDE96D
:1019000006230E230393109B0495CDE901730094E5
:10191000094B4FF4006203F02BFDA368C3F80C03DE
:10192000216A03F057FC284608B0BDE8F0876FF045
:101930007705F8E7137400008919000010B5044614
:1019400080680379012B19D100F53E704FF0FF320A
:101950004FF0FF3305F05BFD206805F045FD18B141
:101960000849606905F046FD2046FFF71BFCA068AA
:1019700000F53E7005F0C2FD002010BD6FF085003F
:10198000FBE700BF47980000F8B5044640680368CD
:1019900000219B68984700283FD12046FFF7CEFFE3
:1019A00000283AD11D4E1E4FA06800F52A704FF056
:1019B000FF324FF0FF33032104F0C0FB0546A0685F
:1019C0004FF0FF324FF0FF3300F53E7075B105F078
:1019D0001EFD20462B46134A012105F09EFFA068FC
:1019E000BDE8F84000F53E7005F088BD05F00FFD3C
:1019F00032460221204605F0E1FC20463A462946BF
:101A000005F0DCFC606803685B6903B19847A06877
:101A100000F53E7005F072FDC6E7F8BD51110000FB
:101A2000B9140000059E000010B5084A04460821BC
:101A300005F0ABFD2046064A082105F0A6FD20462C
:101A4000044A002100F0CEFB002010BD1C9E0000C7
:101A5000709E00000A9F0000F8B51E4617460B4610
:101A60002F4A0821044605F090FD6EB33B782D4ABD
:101A70000821204605F089FD01256A0704D12A4A7C
:101A80000821204605F081FDAE4223D97B5D254A21
:101A90000821204605F079FD0135102DEDD1234AAE
:101AA0000821204605F071FDD6B91F4A08212046BD
:101AB00005F06BFD0125AE422B4613D81A4A0821CA
:101AC000204605F062FD19E0194A0821204605F07C
:101AD0005CFD0125164A0821204605F056FDDBE78E
:101AE00000252B46FB5C134AD25C12F0970F08BF0F
:101AF0002E23114A0821204605F047FD0135102DFF
:101B000007D06B07D7D1084A0821204605F03DFDD4
:101B1000D1E72046094ABDE8F840082105F035BD67
:101B2000209F0000279F00002F9F0000319F000092
:101B30002D9F00008EA50000339F0000369F0000FF
:101B400010B5044613460A460146064801F036FA27
:101B500023691B7923B12046BDE8104005F040BD44
:101B600010BD00BFF97500002DE9F04F85B00026CB
:101B7000DFF8A8A101910746144699460660B346CE
:101B80002378002B00F0C6801AF8033013F0080306
:101B900004D004F801BBF3E70026F1E73A68511CD2
:101BA0003960019941F822403A684A4500F0B28014
:101BB0001E4621780029E3D0A6B90E4623461C46CE
:101BC000272E04D05C2E20D0222E40F09780204675
:101BD00005F030FD611C0246204607F055F82178DB
:101BE0000029CDD0B142A04604F101041BD14046EA
:101BF00005F020FD21460246404607F045F898F8DA
:101C000000604446002ED9D1BAE7204605F012FD07
:101C1000651C02462946204607F036F866782C46B1
:101C2000002ECDD1ACE75C2998F80110D8D1B14293
:101C30008C4608D1404605F0FDFC21460246404650
:101C400007F022F8B5E7302925D10025022218F83F
:101C500002C0ACF13000C0B2072819D8ED00013243
:101C6000EDB2052A45EA0005F1D1511E4144404636
:101C70000392029105F0DEFC039A0299023A821A5D
:101C8000404607F001F898F8011088F80050A7E7DF
:101C9000D2B2022AE9D1BCF1780F2AD10025022064
:101CA00018F80020A2F1300C5FFA8CFCBCF1090F8F
:101CB00009D82D01EDB24CEA0505022801D0042215
:101CC000D3E70320ECE7A2F1610CBCF1050F05D8C6
:101CD0002D01EDB2573A1543EDB2EEE7A2F1410CFA
:101CE000BCF1050F03D82D01EDB2373AF3E7022816
:101CF00002D108F1010473E70322B6E71AF80630AF
:101D00001B073FF549AF6678631C002E7FF457AF81
:101D10001C4635E7304605B0BDE8F08F8EA50000C3
:101D200038B50B46154648B91449154A521AB3EB53
:101D3000920F05D251F82350284638BD84680CB95B
:101D40000025F9E70F4A94420AD30F4A944207D27A
:101D500018462268294690472B68002BECD1EFE704
:101D60000A4A944202D30A4A944205D324681422B0
:101D70005343E518E358F0E70133F8E7C48F000058
:101D8000E88F0000FC8F0000FC8F0000E88F00004F
:101D9000FC8F00002DE9F843074648B105F04AFCE6
:101DA0000025DFF8589004462E46631E9D4201DB55
:101DB000BDE8F883284601353B5C19F803301B0762
:101DC000ADB2F2D529468BB2A342EED27B5C19F8B4
:101DD000038018F0080803D001360131B6B2F2E7EB
:101DE000002EE2D08AB2A21A0130A41B013239447B
:101DF000384406F049FFA4B24646D6E78EA5000057
:101E0000F8B5846894F84230054653B9AB689A8FA8
:101E1000DA87F8BD013A92B2A2872AB984F8422043
:101E2000F4E7124E04F14200A28F831813F8013C2C
:101E3000F35C13F00803EDD183549AB210FA83F1E6
:101E400010F802C016F80CC01CF0080F1F4603F172
:101E50000103F2D1BFB2002FD8D0A68F731C9A1AFB
:101E6000F61B06F011FFA687D0E700BF8EA5000085
:101E7000F7B51646027800232D2A0446019305D1B2
:101E80006FF015033360002003B0F0BD06F026FFAD
:101E90000B4F0546C3510A46204601A904F0ACFD8C
:101EA000EB59222B02D16FF02103EBE7002BE7D196
:101EB000019BA342E4D01B78002BE5D0E0E700BFF4
:101EC0000C000000014905F03DBC00BF489800002F
:101ED0002DE9F0410C1E064631DA644224B24FF07F
:101EE000FF35DFF86080A4B2AFB212E0B368DA8FDA
:101EF00003F1420C9B8F1146002071B9B5F1FF3FF1
:101F000000D073B9891A09B2304605F073FC013C60
:101F1000A4B2002CEAD1BDE8F0818B4201D1012DA1
:101F2000F0D01CF801E018F80EE01EF0070F04D105
:101F30000028E7D1394489B2DFE70120FAE701251B
:101F4000CFE700BF8EA50000826802494069423297
:101F500005F0F8BB019A00002DE9F04183680646C0
:101F6000988F00283DD0D98F00293AD0413103F114
:101F700042020B441D46954206D3294611F80149F9
:101F8000202C25D0954225D29CB2AFB2E21B92B252
:101F900005F10108511C2944821A404606F074FEDE
:101FA000B268938F391B13FA81F39387B268938FCA
:101FB0001A44002382F84230304609B205F01AFC78
:101FC00043463046084ABDE8F041082105F0A5BC6B
:101FD0000D46D0E7294611F80149202CD4D00D46F2
:101FE000D0E7BDE8F08100BF019A00002DE9F04183
:101FF00083681746DA8F0D46D3F8601242321344D5
:102000004A0704461FD51846FEF7F6F9DFF8408068
:10201000064696B9A3689A8FDA87A06805F09FFBF9
:1020200020B107B115B16069FFF74CFF6942204646
:1020300009B2BDE8F04105F0DDBB6069414605F03D
:1020400081FB013EE5E7034A082105F066FCE1E774
:102050009BA60000019A000013B583688DF8071055
:10206000D3F860220446D00722D5D98F9A8F8A42AE
:102070001ED0481CD8870B449DF8072083F84220C7
:10208000A368D3F86012890710D5D3F8603260696D
:102090000B4913F0040F18BF2A2205F053FB20460A
:1020A00005F070FB10B16069FFF70CFF02B010BDC6
:1020B00001220DF10701204605F03DFCF6E700BFC7
:1020C000339F000010B58368094A1B68044602214B
:1020D00005F023FCA368D3F860329B0707D52046A0
:1020E000FFF732FF2046BDE8104005F071BB10BD80
:1020F000019A0000014905F07DBC00BF489800002E
:102100002DE9F047054690460E46002965D0DFF8D8
:10211000D0900024335D19F803301A071ED43046DE
:10212000FEF76AF9AB685A8D80B2001BA2EB080378
:10213000984206EB040A13D95146002711F8010B07
:1021400019F800C01CF0080F02D00A282DD03B4619
:1021500008EB0700824227D90137EFE70134D9E7BE
:1021600053460027B84214D013F8012B0A2A19D17C
:10217000686905F035FA51463A46284605F082FB73
:102180006869FFF7B7FF0134414628463C4405F033
:10219000F8FA6869311905F02DFC6869BDE8F04767
:1021A000FFF7A8BF0137DDE71F46686905F018FA99
:1021B0003A465146284605F065FB3C44335D19F824
:1021C00003301B0707D46869FFF794FF4146284690
:1021D00005F0D7FAA3E70134F0E7BDE8F08700BFC8
:1021E0008EA500002DE9F04F0E46002189B004466F
:1021F00017460D4603AA304601F10108FFF790FD8E
:10220000B0B995B127B13A460821204605F085FBC3
:102210001E4FDFF87C90DFF87CA0002103AA304637
:1022200001F10108FFF77CFD60B909B0BDE8F08F4E
:10223000006810B1FEF7E0F880B2854238BF05466D
:102240004146D7E703688BB11A787AB1D0F804B069
:102250004A46CDE9005308213B46204605F05DFB88
:10226000BBF1000F04D16069FFF744FF4146D5E799
:10227000524620463B46082105F04FFB6A1D92B2AC
:1022800059462046FFF73CFFF0E700BF709F000073
:10229000529F0000599F0000F7B50F6805460E4693
:1022A000A7B13846FEF7A8F884B2094B0093284638
:1022B000084A3B46082105F030FBE21C716892B2E7
:1022C000284603B0BDE8F040FFF71ABF3C46ECE7F4
:1022D0006C9F00005D9F000010B507490446FEF7A3
:1022E00079F838B105492046FEF774F8B0FA80F065
:1022F000400910BD0120FCE7629F0000659F0000BF
:1023000008B58369034A1B68082105F03EF90020DF
:1023100008BD00BF739F00002DE9F3410E4A0F4C2A
:102320000F4EDFF840800821054605F02EF9002306
:10233000B44203F1010703D3002002B0BDE8F081ED
:10234000A268126800929BB242460821284605F016
:102350001CF92C343B46EBE7839F0000988F00006C
:10236000C48F00009B9F000008B5024905F01AF9D0
:10237000002008BD499800007FB50F4E0446002597
:10238000A268E0680DF10E0302F5A172012105F0CB
:10239000A1FBBDF80E00A36850B103F5A173009333
:1023A00032462B460821204605F0EFF80135E7E7D5
:1023B00083F8420104B070BDA79F000010B5044629
:1023C00005F000F9034A03460821204605F0DDF830
:1023D000002010BD829B0000022907B50DD1536873
:1023E00001930E4B009313680D4A012105F0CDF8BF
:1023F0006FF0150003B05DF804FB8368094AD3F859
:10240000603213F0020F4FF00801074B08BF13466C
:10241000064A05F0BAF80020ECE700BFBE9F0000B6
:10242000B59F0000B19F0000A1990000D39F00005C
:102430002DE9F04F074689B01546894621B110466F
:1024400005F0EDFB00285BD1032455E05C463CE041
:1024500029460AF5A17006F0D7FB0646002854D09D
:10246000FDF7CAFF82B2601C01323146304406F0EB
:102470000BFC22465946304606F0F8FB4FF020038D
:102480003355BAF8403001331C44AAF8404008F1F3
:102490000108002401994B1C03AA48460193FFF749
:1024A0003FFC0646E8B131680022284605F038FDB9
:1024B0000028EFD1D6F800B0D7F808A0BBF1000F84
:1024C000C4D05846FDF798FF84B2BAF84030234490
:1024D000FF2BBDDD0E4A2B460321384605F01DFAC1
:1024E0000124B8F1000F07D0B8682A4600F1400176
:1024F00000F5A17005F0D4F8204609B0BDE8F08FD2
:102500004FF0000841460224C5E70224E9E700BF76
:10251000DBA20000014804F02BB800BF3494000097
:1025200038B5044618B90F4B0F485B689847616887
:10253000B1F5683F10D0B1F5680F0DD00B4DA94231
:102540000AD011F46861206807D00146084805F0F8
:10255000C0FF00232360656038BD142206F0AEFB87
:10256000F9E700BF400100202DA300002C5F5CA90B
:10257000C40D002008B520B34368B3F5683F10D1FF
:1025800001220368BFF35B8F53E8001F002903D1CA
:1025900043E800200028F7D1BFF35B8F0DD1002066
:1025A00008BD094A93420AD000684FF0FF324FF04D
:1025B000FF3302F069FF0028F1D00448F0E7044837
:1025C000EEE76FF4E040EBE72C5F5CA9E98FFFFFDB
:1025D000EA8FFFFF08B5D8B14368B3F5683F10D163
:1025E00000220368BFF35B8F53E8001F012903D16A
:1025F00043E800200028F7D1BFF35B8F0BD1002008
:1026000008BD074A934208D0006802F0B7FFF6E71A
:102610006FF4E040F4E70348F2E70348F0E700BF57
:102620002C5F5CA9E98FFFFFEA8FFFFF10B504461E
:1026300018B91D4B1D485B6898476368B3F5683F40
:102640002FD0B3F5680F2CD0194A934219D12368C3
:1026500003BB18484FF0FF324FF0FF33214602F022
:1026600053FD08B923681BB90F4B13485B689847A3
:1026700020681422002106F021FB4FF46863636098
:1026800008E0B3F5683F0DD83A2B03D040F6BA62A4
:102690009342DED1206805F072FF636843F03A038D
:1026A000636010BD054AF3E7400100202DA3000040
:1026B0002C5F5CA9C40D002053A300003A00003A2F
:1026C00008B5064906484023142205F0F4FEBDE88B
:1026D00008400449044803F0BDBF00BFC4080020FF
:1026E000C40D00203C9400005094000001491022C9
:1026F0000A60704710ED00E072B6404080F3118828
:10270000BFF36F8FBFF34F8F30BF62B6BFF36F8FD2
:10271000704700BF72B6494081F31188BFF34F8FF5
:1027200020BF80F3118862B6704700BF40B2002816
:1027300007DB044A4109012300F01F00834042F8EF
:102740002130704700E100E040B200280CDB430973
:10275000064900F01F0020330122824041F8232067
:10276000BFF34F8FBFF36F8F704700BF00E100E0F2
:10277000054B420900F01F0053F82220012303FA01
:1027800000F01040704700BF00E100E040B20028B8
:10279000A8BF00F1604001F10101B8BF064B4FEA4C
:1027A0004111ACBF00F5614000F00F00C9B2B4BFE9
:1027B000195480F80013704714ED00E030BFFFF7A4
:1027C000FDBF00BF0B4A08B50B4B22F07F029A6099
:1027D000BFF34F8FBFF36F8FD3F8882022F47002BE
:1027E000C3F8882002F0BAFB03F0ACFA00F05EFAFE
:1027F00002F00AFC0000000000ED00E00A4A0B496C
:1028000093680968C3F8B0100949C3F8AC004B6875
:1028100043F080534B60002383F31188BFF36F8F25
:102820009368D3F8B0007047340F002090950000F3
:1028300000ED00E016498A684FF030001044EFF3D5
:10284000098C80E8F01F202080F31288BFF36F8F7F
:10285000104F4FF000664A698A603E604FF0A8044E
:10286000141920680C4C2060D2F8AC000023C2F888
:10287000AC3080F3118804B5104600F0CDFABDE805
:10288000044002F1300090E8F01F8CF30988704793
:10289000340F002004ED00E0E00D00201EF0040FD6
:1028A0000CBFEFF30880EFF30980816911F8021C77
:1028B0000229FFD001B505F0FBF901BD42F8203C2B
:1028C000009B42F81C3C0A49019B42F8183C029BC1
:1028D00042F8143C21F001014FF0807342F8043CAF
:1028E00042F8081C0023203A0265C0F8AC3070475B
:1028F000310600000A4A0346906878B113F1160FBA
:10290000D0F8980005D0A0F140029A4205D8834241
:1029100003D2814228BF002070470020704700BFCB
:10292000340F002008B514460A4A0B4B9060D0F8CB
:10293000A8201A600D4600F06FFA204685F309883A
:10294000002163B681F31188BFF36F8F002200234B
:10295000FDF76EFE340F0020E00D002001B5EFF30F
:102960000580A0F110004FEAC0000449014409C9E4
:102970009847BDE80140024908470000B88D0000B3
:10298000E5290000124B134A2DE9F041D518DFF874
:102990004880013DB5FBF3F55D43104B08EB0304A4
:1029A000013CB4FBF3F403FB04540E1B07460C4933
:1029B000304606F05BF9701942460021083E06F0E9
:1029C0007DF9C7F8A86004F10800BDE8F08100BFF8
:1029D00001000000000000000800000004000000EA
:1029E000FC8F0000044B99685869884203D0034962
:1029F0004FF080520A607047340F002004ED00E071
:102A000070B5264B15469A6A12F0100F9A6A14BFD9
:102A10001124102412F0080F9A6A18BF122492078A
:102A200006460AD5586B9A6A140634D519B19A6AC3
:102A300022F080029A62132401E06FF01500174B18
:102A40009A6A12F0010F9A6A18BF142412F0200F2C
:102A50009A6A18BF1524D20602D49B6A9B070AD52E
:102A60000E4B5B68190506D53146FFF743FF10B1E1
:102A700080F309880224094B9A6A920642BF5A6A77
:102A800022F400525A629A6A42F0FF029A620023CC
:102A90002B70204670BD6FF01500CCE700ED00E014
:102AA000134B9A6A12F0007F9A6A14BF1E201D20F1
:102AB00012F0807F9A6A18BF1F2012F4002F9A6AC2
:102AC00018BF212012F4802F9A6A18BF222012F416
:102AD000003F9A6A18BF232012F4803F9A6A6FEA77
:102AE00002426FEA12429A6218BF2420704700BF68
:102AF00000ED00E010B5194B0246986A9C6A10F48C
:102B0000805F14BF1720162014F4006F9C6A18BF52
:102B10001820A40509D5986B986A000404D51AB149
:102B20009A6A22F400429A6219200C4B9A6A12F4B3
:102B3000806F9A6A18BF1A20D2050CD49B6A13F4CE
:102B4000005F18BF1C20054A936A43F47F439362D9
:102B500000230B7010BD1B20F5E700BF00ED00E067
:102B6000F0B5484B5B688BB00446C3F308030025FF
:102B700085F31188BFF36F8F02F07F40B0F17F4F74
:102B800011D102F00C0008280DD010074CBF0C46E4
:102B900001250022033B8DF80720032B05D8DFE831
:102BA00003F0246367602C46F3E700239DF80720B9
:102BB000CAB902AE04F1200720686168324603C238
:102BC0000834BC421646F7D1099A002D54D0C2F3FE
:102BD000080121B96FEA52226FEA4222099202A942
:102BE000184605F063F80BB0F0BD264BDA6A910782
:102BF000DBD4DA6A002AD8DBDA6A5200D5D55A6902
:102C0000A16942F480725A61BFF34F8FBFF36F8F97
:102C10005A6931F8021C22F480725A61BFF34F8F57
:102C2000BFF36F8F4DF6027291420AD09A6AD2B208
:102C30004AB10DF1070201212046FFF7E1FE0346EC
:102C4000B4E72368B2E79A6A12F47F4F05D00DF11A
:102C500007010120FFF74EFFF1E79B6AB3F5803FC4
:102C6000A3D3FFF71DFFEAE70DF107020021E3E719
:102C70000DF107010020EDE722F4FF7222F00102BE
:102C8000ACE700BF00ED00E0024A536943F01003D7
:102C90005361704700ED00E0EFF30880EFF3098126
:102CA00001B57246FFF75CFF01BD00BF0448002379
:102CB0002021C2180133302B82F80013F9D170475C
:102CC00000E100E0002080F31488BFF36F8FFDF770
:102CD000EFFD002011490860BFF34F8F104880F3CB
:102CE000088800F045F8202080F311880D484FF047
:102CF000AA014FF4046205F0C4FB0A484FF40461D2
:102D0000401880F30988EFF314800221084380F310
:102D10001488BFF36F8FFFF755FD000094ED00E0BE
:102D2000C02B0020001E0020BFF34F8F0549064B2B
:102D3000CA6802F4E0621343CB60BFF34F8F00BF59
:102D4000FDE700BF00ED00E00400FA050749D1F8F7
:102D500090200023C2F307221846934200DB7047FD
:102D6000C1F89830C1F8A0000133F6E700ED00E0AB
:102D700008B572B6002383F31388FFF7E7FF144BFF
:102D80004FF0FF32C3F88020C3F88420C3F88820B6
:102D9000C3F88C20C3F89020C3F89420C3F898207F
:102DA000C3F89C20C3F88021C3F88421C3F888218C
:102DB000C3F88C21C3F89021C3F89421C3F898215B
:102DC000C3F89C2162B6BFF34F8FBFF36F8F08BD6E
:102DD00000E100E0084B9B6883420BD1EFF30583D1
:102DE00043B1064B5A6842F080525A605A6A22F444
:102DF00000425A6202F030BF340F002000ED00E0C4
:102E0000024B034A0348012100F072B8000004207D
:102E10000000002060940000D0F89820054B403A54
:102E20001A60054A4021C3E901121846012100F049
:102E300069B800BFE40D002000000B15F0B5204E6E
:102E400000258D4239DA446874B353B104F1FF3C74
:102E500014EA0C0F2FD11F2C2DD907681CEA070F7D
:102E600029D1202C0768D0F808C05FFA82FE1ED94D
:102E7000B4F1004F1DD8013CB4FA84F4C4F11F042E
:102E80006400BEF1070F4CEA040C14D827F01F04AD
:102E9000144344F01004C6F89820C6F89C404CF047
:102EA0000104C6F8A040013201350C30C9E70824FE
:102EB000E7E73E24E5E76FF015021046F0BD00BFDE
:102EC00000ED00E0044B0522C3F89420BFF34F8FC0
:102ED000BFF36F8F704700BF00ED00E0BFF35F8F5F
:102EE000024B0022C3F89420704700BF00ED00E0C1
:102EF00010B5034C01232278FFF7A0FF207010BD0E
:102F00007211002008B5094A00231278FFF796FFD6
:102F100010F1160F02D0064A072800DD08BDC2F8DE
:102F20009800C2F8A0300130F6E700BF721100200F
:102F300000ED00E014490868082810B521D8FFF713
:102F4000CDFF124C49680022904201F10C0105D1DD
:102F50000F4B1870FFF7B6FF002010BDC4F8982083
:102F600051F80C3C23F01F03134343F01003C4F843
:102F70009C3051F8043C43F00103C4F8A030013206
:102F8000E2E74FF0FF30E8E76C94000000ED00E06E
:102F90007211002008B5024B1B689847002008BD3D
:102FA000F00D0020034B044A1860937843F00203AD
:102FB00093707047F00D002084000020F0B587B0BA
:102FC00007460E4614460021102268461D4605F0AD
:102FD00075FE02238DF802302A46054B01932146E7
:102FE0006846CDE9047603F06BFD07B0F0BD00BF85
:102FF000CF7C000008B5044803F0ADFF404080F3EB
:1030000011884FF0020002DF84A3000008B50649D2
:10301000064821F00701C1F1005202F5802203F0B9
:10302000D3FF002008BD00BF5332002040320020F3
:103030000B0706D5034B1B5C03F00303012B08BFF2
:10304000203070478EA500000E4A0123C2F840359B
:103050004FF080424FF08051C2F87835D1F83001FE
:10306000082808D1D1F83411052904D80648415C54
:1030700009B1C2F838364FF080430122C3F88025E9
:103080000020704700E00140B1A3000020B1034BD5
:10309000800143F001031847704700BF0090000013
:1030A000084B70B5C31A0D4607499B100446594397
:1030B0000648402204F053FF2B4601462046BDE857
:1030C00070401847080E0020B76DDBB6688D000011
:1030D00073B50C4C0C4A4023041B00930D460B4661
:1030E0000A49A41061430646094804F065FF011E21
:1030F00005DA30462B4602B0BDE87040184702B0F2
:1031000070BD00BF080E002025800000B76DDBB643
:10311000688D000010B505F063FB4FF47A72A0FBD8
:103120000203074C02FB0131C00B40EA4140C90BCE
:10313000C4E900010120BDE8104005F092B800BFCD
:1031400000030020002270B5012104461046FFF75D
:103150001DFB0F4801F0AEF90E4B984215D105F05A
:1031600073F826690C49304603F0BBFF00280BDBDF
:10317000012535642469084904F11C0003F0B1FFFE
:10318000002801DBE564002070BD6FF00400FBE760
:10319000D13100000000AD0B8C94000070B50146E9
:1031A0000C2309484B43C418D4E90E56403300227F
:1031B0001844A26304F0C0FE2DB132462B460348EA
:1031C000BDE87040184770BD080E0020688D0000F3
:1031D00010B1012804D07047034B1B6C5B0701D171
:1031E000FFF7DCBF704700BF080E002008B54FF0A6
:1031F0002003EFF3118183F31288BFF36F8F114A1D
:10320000136843F002001060DA0707D481F31188D5
:10321000BFF36F8FBDE80840FFF77CBF4FF08043DE
:10322000D3F80C24D3F80C34DB07EFD5064804F0B0
:1032300083FE81F31188BFF36F8F0020BDE8084043
:10324000FFF7ACBF580E0020480E00207FB50022CB
:103250000123CDE9022304ABCDE90433094ACDF8BB
:1032600000D06B46CDF804D004F0D5FE002805DB75
:103270004FF480420023684602F0E4F907B05DF89D
:1032800004FB00BF438000002DE9F74F4FF080475B
:103290000546D7F8186406F480364FF02003EFF3A4
:1032A000118883F31288BFF36F8F05F099FA4FF4FA
:1032B0007A72A0FB024302FB0133E40B44EA43446D
:1032C000D7F80C34244BD7F80C94D3F800B0234B28
:1032D000D3F800A088F31188BFF36F8F204ADFF87E
:1032E0008480214F2846082104F04FF919F0010F7E
:1032F000DFF878901E4AB9F81A30009328460CBFC0
:1033000043463B46082104F040F9A4EB0B0300932D
:1033100028465B46174A0821A4EB0A0404F035F955
:1033200053462846144A0094082104F02EF92846F2
:10333000124A082104F029F9B9F8363000932846DA
:103340000B4A002E0CBF43463B46082104F01DF9F2
:10335000002003B0BDE8F08F00030020F802002039
:10336000C0A30000BBA3000049980000080E002085
:10337000CBA30000E5A3000007A4000028A40000E0
:1033800010B505F02DFA4FF47A72A0FB0203074C3A
:1033900002FB0131C00B40EA4140C90BC4E9000106
:1033A0000120BDE8104004F098BF00BFF8020020E3
:1033B00010B54FF02003EFF3118483F31288BFF3AD
:1033C0006F8F074A136823F00201DB07116001D4F5
:1033D000FFF7D6FF84F31188BFF36F8F10BD00BFD6
:1033E000580E00202DE9F0413849BFF35B8F0746A6
:1033F000012251E8003F41E800200028F9D1BFF345
:103400005B8F33B9324933484B60CB608A6003F03D
:103410007BFE7B1E012B2BD8012F07D14FF0804361
:10342000D3F81C3403F00303012B21D005F078F806
:103430000546F8B9284B1B78E3B14FF080430222D0
:10344000C3F808230646DFF894804FF08044D4F890
:103450001824D4F81834D20316D503F00303012B33
:1034600001D0012F10D15DB386F31188BFF36F8FA8
:10347000BDE8F0814FF02003EFF3118683F312884B
:10348000BFF36F8F0125DEE7ADB13046FFF742F99C
:10349000D4F81835002BDAD1D4F80421002AD6D07C
:1034A000C4F80431D4F804310123C4F81835C8F83D
:1034B0008031A360CBE70021212002F0ADFBE7E7DC
:1034C0004FF080430222C3F80423D1E7040E00200A
:1034D000F40D0020240E00209615002000E100E0ED
:1034E00010B5044C2046FDF785F82046FFF75AFD3D
:1034F000002010BDF9340000F7B5144E8DF8070018
:1035000004460325EFF311874FF0200181F3118862
:1035100001220DF10701002001F060FC87F3118802
:1035200020B101233370204603B0F0BD3378002B67
:10353000F9D0013D08D004F0F3FF0028E2D10021CA
:10354000422002F069FBDDE73570ECE773110020E3
:1035500008B5074804F08AFF38B10648FFF722FD96
:103560000448FDF747F8002008BD6FF01200FBE7A4
:10357000A48D0000793500000A2838B5074D0446AF
:1035800004D1AB680D215B6828469847AB680348B7
:103590005B68E1B29847204638BD00BFA48D0000AB
:1035A00030B54068057B01F01F04B2F5001F85B0FF
:1035B00044EA451405D1204601F058FA002005B030
:1035C00030BD0025B2F5800FCDE9025514D1B3F11D
:1035D000007F0CBF042305238DF808300023194613
:1035E00002AA204601F05EF8234B98423DD101210A
:1035F000204601F0EDF9E1E7B3F1C06F27D0B3F158
:10360000007F14BF012302238DF80830836823FA5A
:1036100001F111F00101E1D1B2F1A07FDED104F09E
:103620001F03620903F5E07313D0012A20D1134A66
:1036300052F82330DB07D1D40DF107052946204687
:1036400001F070F90E4B984206D00395C6E70323AC
:10365000DAE74FF0A042EBE7284601F0B3F9064B5A
:103660009842F2D06FF00B00A9E76FF01500A6E7C3
:1036700051F82330FFDE00BF0000AD0B0003005007
:103680000400AD0B10B501F08DF9044668B901F0E6
:1036900061F9084B98420AD10748214601F03CF9EC
:1036A000224605210620FFF771F8002010BD6FF0BB
:1036B0000400FBE70000AD0BBD360000420970B509
:1036C000034602D0012A17D070BD0D4E32695168F1
:1036D0000029F9D003F01F0301250C689D40002943
:1036E000F2D08A682A4002D04B68304698472CB105
:1036F000236821461C46F2E7024EE7E72346F8E737
:10370000908D00007C8D00002DE9FF4147683B7BD8
:1037100001F01F0545EA43150E4628460DF1070145
:10372000144601F0FFF814F4403F80460DD12846BE
:1037300001F0C2F93D4B984503D19DF8070001F017
:103740003BF9002004B0BDE8F0810023194602AA2D
:103750002846CDE9023300F0A5FF344B984214D13E
:10376000804503D19DF8070001F026F9A3034ED54B
:1037700040F206332340B3F5837F1AD00DD8062BD1
:1037800018D005D8B3B1022B33D06FF01500D9E7AC
:10379000B3F5807FF9D101230CE040F2022293427D
:1037A00029D0B3F5407F28D0B3F5007FEDD10223B7
:1037B00000E007238DF8083084F48033C3F300431E
:1037C000E0068DF8093054BFC4F3401303232103EE
:1037D0008DF80A3013D57A680123B340C2F8083552
:1037E000002202A9284601F01DF8104B9842A8D0EB
:1037F000CBE70423DEE70523DCE70323DAE76203F4
:1038000041BF01237A68B340C2F80C35E8E7E3060C
:103810004FF0000354BFC4F3401403241A4602A916
:1038200028468DF8084000F03DFFDEE70000AD0BB4
:10383000036803F01F025B09026004D0012B0348F8
:1038400018BF002070474FF0A040704700030050A1
:103850002DE9F04FDFF8849185B01546824600EBE4
:1038600081014FF00108514503D1002005B0BDE8AA
:10387000F08FDAF8003003F07F04C3F343277F2C86
:103880004FEA134308BF4FF0FF34222B00F2A3800E
:10389000DFE803F012232B442E3544A1A1A1A14758
:1038A00073A1A1A1A1A1A1A1A1A176818487A1A1B8
:1038B000A18A909396999C00C5F80C45601C1BD07A
:1038C00003A80394FFF7B4FF039B08FA03F3C0F8BF
:1038D000083501264FF0010B2CE0C5F81445631C98
:1038E0000AD000264FF0000B24E0C5F80845E5E7B4
:1038F000621CC5F808456CD10AF1040AB3E7631CE1
:10390000C5F80C45F8D0012603A80394FFF790FFF3
:10391000039B08FA03F3C0F80C35DBE7C5F8104544
:10392000DDE7C5F80845002FD9D1671CE4D0002693
:10393000B3460627DAF80030019303F40052002A58
:1039400003A81CBF01264FF0000B0394FFF770FF84
:10395000039A019B00EB8200C3F3C114D0F8002747
:103960003B0243EA840343EA0B0302EA09021343DE
:1039700043EA4603C0F80037BEE7C5F80C45D2E776
:10398000C5F86045661CDAF80030B5D0C3F3803363
:10399000002BB8D094E7C5F86445F3E7C5F868454F
:1039A000F0E7C5F86C45EDE7C5F82445621CA3D0E7
:1039B000012697E7C5F8284580E7C5F83045F5E7C3
:1039C000C5F83445F2E7C5F83845EFE7C5F83C459A
:1039D000ECE7002698E76FF0850047E7F0F8FCFF7A
:1039E000F0B54B79012B26D0032B21D110258B79F3
:1039F000032B1DD1CE790EB1012E19D10A7912B146
:103A0000022A15D10E220B684468B3F5164F2768B9
:103A100067D02DD8B3F5165F66D016D8B3F5966F7C
:103A200064D00AD8B3F5967F63D0B3F5167F63D020
:103A30006FF0850054E00025D9E7B3F5166F5ED02E
:103A4000B3F5965FF4D1384B3CE0B3F5E14F59D074
:103A500007D8B3F5615F57D0B3F5964FE8D1334B34
:103A600030E047F61224A342E2D14FF4000329E0EC
:103A7000B3F5613F4AD013D8B3F5963F49D009D882
:103A80004DF6C024A34246D0B3F5614FD0D14FF4D8
:103A90006B0317E0B3F5E13FCAD14FF0EB7311E0D0
:103AA000B3F5612F3AD008D8214CA34239D0B3F5F1
:103AB000E12FBDD14FF0E86304E01E4CA342B7D123
:103AC0004FF080530469C7F82435436835431B68B9
:103AD0002A43C3F86C2503C9231D83E80300002093
:103AE000F0BD4FF41D03EDE7134BEBE74FF49E23BE
:103AF000E8E74FF4A033E5E74FF41C33E2E74FF477
:103B00001D23DFE70D4BDDE70D4BDBE74FF06C735B
:103B1000D8E70C4BD6E74FF46503D3E74FF070635B
:103B2000D0E74FF08063CDE700B0130000A04E0057
:103B300090D0030040420F000050270000C07500E5
:103B400000F03A0000903A012DE9F7438046002248
:103B500001210220FEF71AFE0220FEF7E7FDD8F849
:103B60000470D8F810603C680021C4F80015C6F84D
:103B70000080D7F80C9001AA484604F0BAFA051E56
:103B80004CDB019BD9F8002019791868FFF760FE1B
:103B9000051E43DB311D4046FFF722FF0546002886
:103BA0003CD17B68990712D506F1180001F098F80E
:103BB0001E4B984236D1307E04F10C0204F5907110
:103BC00004F038FB337E0120984000F00BFC082302
:103BD000C4F800353B7A53B9C4F81031D4F8103129
:103BE0007369C4F834350123C4F8383523607B6821
:103BF0009A075CBF4FF48073C4F804337B68DB061C
:103C000044BF4FF48003C4F804333369C4F8443527
:103C10000023C4F848350123A360E360284603B0BD
:103C2000BDE8F0836FF00405F8E700BF0000AD0BBE
:103C3000F8B5044607690D4604F072FCB0B92E4B86
:103C40001B789BB16426606804F089FA00BB0120F0
:103C500004F0EEFA013EF6D10021212001F0DCFF54
:103C6000F0E786F31188BFF36F8FF5E74FF020037D
:103C7000EFF3118683F31288BFF36F8F60683146CC
:103C800004F06DFA90B986F31188BFF36F8FEDE7FA
:103C90004FF02003EFF3118683F31288BFF36F8F89
:103CA0006068314604F05BFA0028DAD03B691D7089
:103CB000626838691368C3F844050120C3F84805F1
:103CC0000020C3F82001D3F82051C3F858015268EE
:103CD000D3F85801D20608D5626812680820C2F8E5
:103CE00000054FF48002C3F8042301229A6081F397
:103CF0001188BFF36F8FF8BD9615002070B50123B2
:103D000083400E4ABFF35B8FDC4352E8001F01EA99
:103D1000040542E80056002EF7D1BFF35B8F4FF445
:103D2000803282400648C0F80823BFF35F8FBFF39C
:103D30006F8F0B4214BF0120002070BD780E002051
:103D40000010014070B40E49D1E90034D01AC318F4
:103D500044F1000422F07F46C1E90034A6F50013C7
:103D6000B3F5400F09D2074B1B681A0A1B069C19B2
:103D7000054B42F10005C3E9004570BC02F0B8B83C
:103D8000180300207C0E00202003002011B3BFF395
:103D90005B8F0123104A834052E800CF4CEA030CAA
:103DA00042E800C10029F7D1BFF35B8F0B4A4FF403
:103DB00080338340C2F80433094BBFF35B8F1B6829
:103DC000BFF35B8FC340DB0742BF064B4FF40032AB
:103DD000C3F80021704700BF780E0020001001409A
:103DE000740E002000E100E00D4B1868010A000687
:103DF000BFF35F8F0B4BD3F80435181841F1000166
:103E0000B3F5801F0AD2084BD3E90023904271EB2F
:103E1000030303D210F1807041F10001704700BF2D
:103E20007C0E002000100140200300202DE9F04FFF
:103E300085B016461F469DF840A00446FFF75EFF7A
:103E40000190FFF7D1FFB04271EB070354D23E4B14
:103E5000301A67EB0101984271F100014FD23B4BE0
:103E600003EB0413D3E902239F4208BF96425ED0BE
:103E700037494FF4803804F1500508FA04F8AD00D2
:103E8000C1F848832046ADB204F0B2F926F07F4B6A
:103E900005F1804504F5A87305F58835DC464FF03B
:103EA00003090293029A2CF07F4341F82230C1F8B3
:103EB0004483D1F80435274A6FF00200C01A6044E9
:103EC00020F07F40904232D9286868B1D1F804359B
:103ED0000393A3EB0B0020F07F40B0F5000F26D931
:103EE000204604F085F9039BBAF1000F07D109EBD6
:103EF000030C09F10109D5E7BAF1000F09D06FF001
:103F0000150520460199FFF741FF284605B0BDE899
:103F1000F08F0123104ABFF35B8FA34052E8000FDC
:103F2000184342E800010029F8D1BFF35B8F07492D
:103F30000E98230101EB0412C8500F9B5360C2E995
:103F400002670025DDE700BF0100800008030020B4
:103F500000100140FDFF7F00740E00207FB51C4C57
:103F60001C4BC4F80833C4F848331B4B00254FF0F2
:103F7000FF304FF0FF31C4F80855C3E902014FF498
:103F80008033C4F80433154B02264FF4003201216C
:103F9000C4F804631120C3F880212A46FEF7F6FB1B
:103FA0001120FEF7C3FB0E4A0123A36023601360B8
:103FB0000C4B0D4A0093CDE9015500232846FFF72D
:103FC00035FF3046FFF70EFA284604B070BD00BF3B
:103FD0000010014003000F000803002000E100E092
:103FE000780E0020453D0000FFFF7F002DE9F743DC
:103FF0002F4CD4F8043399070BD5D4F8043143B1CE
:104000002C4A0023C4F80431D4F804311368013376
:104010001360D4F80433DA032AD5BFF35B8F264B41
:1040200053E8002F22F0010143E800100028F7D1E7
:10403000BFF35B8FD30702D4D4F84031C3B100255E
:10404000C4F84051D4F84031FFF7CEFE4FF02003C2
:10405000EFF3118283F31288BFF36F8F174BD3E90D
:104060000267B042B94106D282F31188BFF36F8F65
:1040700003B0BDE8F0834FF0FF384FF0FF39C3E9DC
:104080000289D3E900101D604FF48033C4F848332F
:10409000C4F84051D4F8403182F31188BFF36F8FD8
:1040A0000029E5D0009032463B4628468847DFE7A6
:1040B000001001407C0E0020740E00200803002038
:1040C0001FB5431C23D0012823DD134A134B904214
:1040D000D4BF04461C46FFF787FE114B0F49D3E9B6
:1040E0000023801AB0F5000F28BF002404448C423E
:1040F00028BF0C46A2180B4900914FF00000CDE9F3
:10410000010043F10003FFF791FE04B010BD034C22
:10411000E1E70124DFE700BFFEFF7F00FFFF7F0034
:1041200018030020453D000008B5FFF75DFE024B77
:104130001B68C01A08BD00BF1803002010B5084C4A
:10414000012363601120FEF7FFFA064BC4F8083321
:10415000C4F84833044B4FF40032C3F8802110BD3B
:104160000010014003000F0000E100E04FF0805319
:10417000D3F83021082A06D1D3F83431052B02D8E0
:10418000024AD05C70470020704700BFC5A4000001
:10419000024AD2F80034002BFBD0704700E0014007
:1041A00010B54FF08053D3F83021082A4ED14FF08C
:1041B00080420021C2F80C11C2F81011C2F8381563
:1041C00002F54042D3F80414C2F82015D3F80814BD
:1041D000C2F82415D3F80C14C2F82815D3F810141B
:1041E000C2F82C15D3F81414C2F83015D3F81814EB
:1041F000C2F83415D3F81C14C2F84015D3F82014B3
:10420000C2F84415D3F82414C2F84815D3F828147A
:10421000C2F84C15D3F82C14C2F85015D3F830144A
:10422000C2F85415D3F83414C2F86015D3F8381412
:10423000C2F86415D3F83C14C2F86815D3F84014DA
:10424000C2F86C15D3F84434C2F87035FFF78EFF0E
:1042500018B13A4B3A4AC3F88C26FFF787FF18B1DA
:10426000384BFB22C3F81825FFF780FF70B14FF0E1
:1042700080414FF08053D1F8E42ED3F8583222F029
:104280000F0203F00F031343C1F8E43EFFF76EFF84
:1042900020B12D4B4FF40072C3F840264FF08053ED
:1042A000D3F83031082B1AD14FF08043D3F80024D3
:1042B000D20744BF6FF00102C3F800244FF08053CF
:1042C000D3F83431052B02D8204AD35C3BB14FF0F0
:1042D0001023D3F808224FF08043C3F858254FF03D
:1042E0001023D3F80022002A03DBD3F80432002B7A
:1042F00022DA174901234FF01020C1F804351224A7
:10430000FFF746FFC0F80042FFF742FFC0F8044243
:10431000FFF73EFF0023C1F80435FFF739FFBFF375
:104320004F8F0C490C4BCA6802F4E0621343CB6018
:10433000BFF34F8F00BFFDE710BD00BF005000402E
:104340004881030000F0004000900240BFA400003C
:1043500000E0014000ED00E00400FA0530B504681B
:10436000CCB1BFF35B8FB4FA84F3C3F11F03DBB2AC
:1043700001229A4024EA020250E8005FA54204D1DB
:1043800040E8002CBCF1000FF6D1BFF35B8FE6D103
:1043900002480B7030BD0248FCE700BF0000AD0BC7
:1043A0000200AD0B10B50368CB40DB0714D401232A
:1043B0008B400268BFF35B8F43EA020150E8004F75
:1043C000944204D140E8001CBCF1000FF6D1BFF3C9
:1043D0005B8FEED1014810BD0148FCE70000AD0B3A
:1043E0000400AD0B014BC3F80405704700F0014019
:1043F000F7B5044618B1012823D003B0F0BD4FF043
:1044000080430222C3F80823C3F80401D3F804212F
:104410000122DA60064601238DF8073042F210755A
:104420004FF08047D4B1012CE7D1D7F80C3403F416
:104430008033AEBB83B3012003F0FAFE013DF4D11B
:104440002AE04FF080430022C3F80803C3F800219C
:10445000D3F8002158600DF10706DCE7D7F81834CF
:1044600003F480333EB9002BC7D0012003F0E0FEF7
:10447000013DF3D1C1E7D7F8182402F003023260FE
:10448000002BBAD09DF80700012803D103F0D0FE1D
:10449000013DC7D1012CB0D1054B00225A71ACE7C8
:1044A000D7F80C2402F001023270002BEAD1F3E7B6
:1044B000800E0020044B1A7922B9012218609A80DC
:1044C0000248704702487047800E00200000AD0B84
:1044D0000C00AD0B10B54FF08043D3F800216AB14A
:1044E0000022C3F80021D3F800210122C3F80823D9
:1044F000114B587910B95A711B6898474FF0804397
:10450000D3F8042172B10022C3F80421D3F80421A6
:10451000D3F81824D3F81824920704D10122C3F841
:1045200018259A6010BD0222C3F80823024BBDE88B
:1045300010401B6801201847800E0020036803F01C
:104540001F025B09026004D0012B034818BF002042
:1045500070474FF0A040704700030050034A4309E2
:1045600000F01F00D35C1844C0B27047D6A400000E
:1045700008B5FFF7F3FF034B083033F81000C0F322
:10458000401008BDB000002008B5FFF7E7FF034B5F
:10459000083033F81000C0F3400008BDB000002020
:1045A00008B5FFF7DBFF034B083033F81000400B72
:1045B00008BD00BFB000002070B50546FFF7CEFF74
:1045C0000C4C08300E4634F81030DA0508D5C3F329
:1045D000432304EBC302284654F83330526898470B
:1045E000A3682BB1E26831462846BDE87040184701
:1045F00070BD00BFB000002010B5FFF7AFFF124A3A
:10460000083032F81030D9051CD5C3F3432123F408
:10461000F85322F8103002F10E04002034F8023F63
:1046200013F4807F03D0C3F3432399420AD00130AF
:104630003028F3D1002342F831300448BDE810405F
:10464000FFF7B0BE10BD00BFB00000202401002065
:10465000F0B50146104A114C00200125064602F132
:104660004043A3F5C2439B0805FA03F3194204D063
:10467000176817B11660176818430432A242EED1CA
:10468000074BD3F87C2132B10022C3F87C21D3F848
:104690007C3140F00040F0BD0061004020610040EE
:1046A000006000402DE9F04385B0054690461E4667
:1046B000FFF754FF044609B32846FFF765FF18B11A
:1046C0002846FFF755FF38BB0023CDE900338DF8AE
:1046D0000E308DF80F300DF10F020B4628460DF10C
:1046E0000E0103F0FCFD4A4A04F1080132F81130D2
:1046F00023F0020343F0010322F81130B8F1000F58
:1047000031D0284698F80070D8F80490FFF73CFFA5
:1047100020B1B9F1000F1BD03E4826E03C4B04F11C
:10472000080C33F81C1021F02001C904C90C23F82F
:104730001C10B9F1000F0BD0032FEDD8D8F80420CE
:1047400092F800E0A7B9344B0EF5A27E43F82E7024
:104750002F4A04F1080132F8113023F01C0343EA18
:10476000870322F811304EBB2C4805B0BDE8F0831A
:104770004FEA8E0202F1804202F5C04241EA4E3118
:10478000D2F8100520F00300C2F81005D2F8100589
:1047900020F44F3020F44070C2F81005D2F8108594
:1047A000280200F47C5040EA080040EA074041F04B
:1047B000200123F81C10C2F81005C9E7D6E90076DD
:1047C0002846FFF719FF002FCED0114DD5E9002361
:1047D000974201D19E4218D011480DF10F01FFF709
:1047E000BDFD0E4B9842C0D19DF80F2045F83270A8
:1047F00005EBC20308345E6035F8143043EA422307
:1048000043F4807325F81430AEE70022EEE700BFD2
:10481000B00000200400AD0B006000400000AD0BB4
:10482000240100202DE9FF4104461646FFF796FEBD
:10483000054631B32046FFF7A7FE20B92046FFF713
:1048400097FE002860D1314F05F1080837F818307D
:1048500013F01C0F02D04B78012B55D001238DF89B
:104860000F300023CDE900134A1C8B1C20460DF1AC
:104870000F0103F034FD37F8183043F0030327F835
:1048800018301EB9224804B0BDE8F0812046FFF779
:104890007BFEC8B31D4F96F800C005F108006146C5
:1048A00037F81050890025F0200501F18041ED0412
:1048B00001F5C041ED0C27F810500023C1F8103568
:1048C0007278002ADED0D1F81035B67823F4991327
:1048D00023F4F853C1F8103512042302D1F810E57F
:1048E00002F4403203F47C531343320543EA0E03CF
:1048F00002F4801245EA4C35134345F0200527F8B1
:104900001050C1F81035BDE70248BCE7B0000020E8
:104910000000AD0B0400AD0B014BC3E90201704771
:10492000B000002010B50446FFF722FE50B120462B
:10493000FFF714FE044B083033F8103003485B0BCC
:104940000B7010BD0248FCE7B00000200000AD0B6A
:104950000400AD0B70B50F4C94F87860BEB90E4DE5
:104960006022314604F1100004F0A8F9C5F87C611A
:104970000620D5F87C31FDF7D9FE4FF00043C5F88D
:1049800004330648012384F87830636770BD044817
:10499000FCE700BFB0000020006000400000AD0B4D
:1049A0000500AD0B034B93F87800003818BF0120C9
:1049B000704700BFB000002001460148FFF7F2BC7D
:1049C0002001002001460148FFF7C8BC200100205B
:1049D00037B50446FFF7CCFD08B32046FFF7D4FDFA
:1049E0000546E0B92046FFF7DBFD03B29B0003F16B
:1049F000804202F5C24203F1804303F5C0431560D3
:104A00001268D3F8102542F00102C3F8102521B135
:104A1000144A01238340C2F8043303B030BD20465A
:104A2000FFF79CFD104B083033F81030C3F38203BE
:104A3000042B12D0052B12D001A80194FFF77EFDA4
:104A4000019BD0F81015D94001F001010231204638
:104A500003B0BDE8304003F08BBC0321F7E702212F
:104A6000F5E700BF00600040B000002010B504462C
:104A7000FFF77EFDC0B12046FFF786FDA0B92046B6
:104A8000FFF78EFD0B4A01238340C2F8083303B2BF
:104A90009B0003F1804303F5C043D3F8102522F0B7
:104AA0000302C3F8102510BD20460021BDE81040C8
:104AB00003F05EBC0060004073B50446FFF74EFD96
:104AC000184E00F1080536F81530DB0727D52046CB
:104AD000FFF7CCFF2046FFF74BFD40B12046FFF724
:104AE0005FFD114B00F5A270002243F82020204604
:104AF000FFF782FD002301A826F815300194FFF787
:104B00001DFD019B00EB8300084BD0F800271340EC
:104B100043F00203C0F80037054802B070BD0548F5
:104B2000FBE700BFB000002000600040F0F8FCFF91
:104B30000000AD0B0400AD0B2DE9F04F644BD3F832
:104B40000403C0B285B040F00040FFF781FD051EB0
:104B500080F2A1804FF0A043D3F820250292C3F841
:104B60002025D3F820280392C3F820280DF1080847
:104B70004FF00009574B09EB030B4FE093FAA3FAF0
:104B80009BF80040BAFA8AFA4AEA44142046FFF732
:104B9000E5FC514B019408304FEADA0233F810700B
:104BA0000AF007030120984018F8023023EA0003B6
:104BB00008F8023001A8FFF7C1FC019B03F5E07380
:104BC000B90850F82330C7F38206C3F3014A4B07F4
:104BD00037462FD520463146FFF7EEFC01A8019459
:104BE000FFF7ACFC019B03F5E0735FFA8AFA50F81B
:104BF0002330C3F301439A4507D10021204603F037
:104C0000B7FB5146204603F0B3FB01A80194FFF720
:104C100095FC019A01239340C0F82035D8F8003064
:104C2000002BABD108F10408B9F1000F1DD14FF0F2
:104C300001099FE7BAF1020F0CD10321204603F0CE
:104C400097FB06F00503012BDFD139462046FFF71D
:104C5000B3FCDAE70221204603F08AFB032EF4D0EE
:104C6000BAF1030FD1D1022EEEE74FF00040FFF76B
:104C7000EFFC4FF0A0421949D2F820350293C2F858
:104C80002035D1F8202503921343C1F820257FF465
:104C90006DAF25F00045012415B905B0BDE8F08FD2
:104CA00095FAA5F3B3FA83F304FA03F29B0003F138
:104CB000804303F5C04325EA0205D3F81005D3F875
:104CC0001015C0F30520C1F30141FFF775FCE3E7C0
:104CD00000600040E6A40000B00000200003005087
:104CE00001460148FFF73ABB2C01002008B5144BE0
:104CF000A8220021184603F0E1FF032202611149B6
:104D00004261114A8161C2614FF4806202620022F5
:104D100082624262C26201660C494166202181665C
:104D200003460267C2664267BFF35F8F084911F806
:104D3000010D98540132102AF9D1BFF35F8F08BDDD
:104D4000880E0020FDA4000096110020761100209E
:104D500016A500002DE9F84FDFF87C8098F80030A8
:104D60008246894616460BB9FFF7C0FF182707FB96
:104D70000A873D6FD7F86CB05D452BD9BC6E796E54
:104D8000641BB44228BF344629444846224603F0F7
:104D90006DFFBB6E2544A144361BAB4208BF002506
:104DA000ABEB050B5E4528BF5E4656B1182303FBEF
:104DB0000A833246596E4846294403F057FF34446B
:104DC000354424B1182303FB0A88C8F870502046E4
:104DD000BDE8F88F0024E3E7880E0020F8B5144BF7
:104DE000182700FB07751D4407FB00330E46DB6ADE
:104DF000012B14460AD0022B14D023B9284603F005
:104E0000C6FA844208D900242046F8BD284603F09B
:104E1000BEFA844228BF044622463146284603F0A3
:104E2000BFFAF1E72846BDE8F84003F0D8BA00BF62
:104E3000880E0020F8B50B4B1B7804460D4616462D
:104E40000BB9FFF753FFEFF311874FF0200181F308
:104E50001188324629462046FFF7C0FF87F31188A4
:104E6000F8BD00BF880E0020034B182202FB003360
:104E7000D86E1B6FC01A7047880E0020034B182293
:104E800002FB00339A6A586A801A7047880E002025
:104E9000034A044B02609B1A1420B3FBF0F07047E6
:104EA000688D0000B88D000038B503464FF0200231
:104EB000EFF3118582F31288BFF36F8F03F00EFFBB
:104EC000064A1458184603F0A3F985F31188BFF376
:104ED0006F8F2046BDE83840FDF77CBF080000001A
:104EE000104B70B553F82040013053F82060A642B3
:104EF00000D870BDD4E9003595B153B12846984724
:104F000038B10028B8BF4042EB68FF28A8BFFF2097
:104F10001870EA68537843F0010353700834E6E7E9
:104F20009847FBE79495000008B50A4B012203203F
:104F30001A70FFF7D5FF01F085F90420FFF7D0FFC5
:104F400000F042FA02F004F8034A137B23F0010355
:104F5000137308BD96150020E003002008B5034830
:104F6000034A0021121A03F08CFA08BDF801002050
:104F70009815002070B51D4E1D4D1E4986B0B823F2
:104F800003FB00661C4B059301220F23CDE903327E
:104F90000023CDE90133142303FB005504464FF4ED
:104FA000C070164B00954FF4A07200FB0411304600
:104FB00000F06EF9737B124AEE6023F00403737302
:104FC0004FF4046304FB033313446B600D4B2C74E8
:104FD000BFF35B8F53E8001F013143E80012002A42
:104FE000F8D1BFF35B8F06B070BD00BF280300206F
:104FF000340F00204026002017A500005785000030
:10500000001E0020300F002080B50020B4B0FFF754
:1050100067FF2D4B83F308882C4D2D4E6B692D4F68
:1050200043F400736B610024E02385F82230EC77B1
:105030002C766C76AC7685F820406B6A43F4E023DE
:105040006B6285F82340FDF71FFEFDF74FFB4FF025
:10505000FF33AB62EB62FDF76DFFFDF7D1FE40F26F
:105060000113ADF8243006ABB360CDE92C442F9486
:1050700003F0FBF90120FFF733FF0220164DFFF785
:105080002FFF00F03FFD154B756105930123144977
:105090000094CDE903434FF480623B46CDE90144DF
:1050A000284600F0F5F86A7B064622F004022846FE
:1050B0006A7303F0AEFA2046FFF75CFF3A463146CA
:1050C0002846FDF72FFC00BF4026002000ED00E041
:1050D000340F0020294F0000E00300201CA5000031
:1050E000C027002038B5064C064D0020AC4200D346
:1050F00038BD204603F0C9F90028F9DB1C34F5E778
:10510000A8010020A801002073B50C464FF020052F
:10511000EFF3118185F31288BFF36F8F45695DB19D
:1051200025602B684361836901338361002081F32B
:105130001188BFF36F8F11E052EA030603D1256097
:105140006FF00B00F3E7CDE900230246083000F0D2
:10515000E3FB18B9024B9B685B69236002B070BD2A
:10516000340F0020F8B505460E464FF02003EFF34C
:10517000118783F31288BFF36F8F064B1C6A24B923
:1051800087F31188BFF36F8FF8BD20463146A847DB
:10519000646FF4E7340F00204FF02003EFF3118128
:1051A00083F31288BFF36F8F094A136A834207D1D2
:1051B0005B6F136281F31188BFF36F8F70471346E3
:1051C000002BF7D05A6F8242F9D1426F5A67F1E74C
:1051D000340F002010B5044608B9054B9C681F2207
:1051E00004F1780003F0F4FC002084F8970010BD6F
:1051F000340F00202DE9F74F0C4600293DD0002A3E
:105200003BD0477B561E08468FB34FF0000BDFF8AC
:105210007090DFF870A05D465FFA8BF14FF00108E7
:1052200008FA01F817EA080F1DD059F821305AF88A
:105230002110721B9A4228BF1A46019203F016FDF4
:10524000019A37EA0807154404EB05000FD0A6EBD6
:105250000508B8F1010F28BF4FF001080A4942467E
:1052600003F004FD45440BF1010B6019D4E7002362
:105270000370204603B0BDE8F08F0448FAE700BF92
:10528000AC950000CC95000024A5000049980000D2
:105290002DE9F04F85B0984600F15803C0E9163368
:1052A0000732129B037322F0070A0423002601F140
:1052B000400B43730AF14005119B83730446524629
:1052C000C0E906660F468660C6730D445846AA219B
:1052D000DDF84C9003F0F2FC29462046FDF752FB26
:1052E0000730109B20F00700C4F8A000C4E926BADC
:1052F00002930F9B01932D1A0E9B00932A4643465F
:1053000039462046FDF7DAFA0E9BA3660F9BE3664B
:10531000109B6665C4F8648023674FF02002EFF3AA
:10532000118382F31288BFF36F8F104F3A6A62675E
:105330003C6283F31188BFF36F8FB9F1000F11D076
:105340001F22494604F1780003F042FC84F897607C
:10535000BB680BB1D3F8A430C4F8A430284605B01C
:10536000BDE8F08F84F87890F2E700BF340F00209A
:10537000F0B587B000250595109D04950F9D039508
:105380000E9D0295DDE912760D9D01950C9D00950F
:105390000446FFF77DFFB6F1FF3F08BFB7F1FF3FBF
:1053A00005D056EA070305D1204600F02BFB204626
:1053B00007B0F0BD03493A46334604F1180000F047
:1053C00021FDF4E79B8600002DE9F043294C2A4D8E
:1053D00087B02646AE4204F12C040FD300F062FBE6
:1053E000244CDFF898904FF4004640F2E737AC4287
:1053F00020D307B0BDE8F04300F068BB54F8043C8C
:10540000059354F80C3C049354F8103C039354F85F
:10541000143C029354F8183C019354F81C3C00933C
:1054200054E9092354E90B01FFF732FF54F82C3CEF
:105430005E65CEE7636A5A1C0DD023EAE373002150
:105440003846C3FB060151EAC333D4F8008004D1C7
:10545000404600F0D7FA2C34C9E74FF47A720023A3
:10546000FAF74EFE02460B4608F11800494600F0D6
:10547000C9FCF0E7388F0000388F00009B860000E1
:1054800000487047006304032DE9F34104461746C2
:105490001E464FF02003EFF3118883F31288BFF309
:1054A0006F8FC368334A7BB180689168884219D096
:1054B00057EA060318D188F31188BFF36F8F6FF096
:1054C0000F0002B0BDE8F081916891F90E102161E2
:1054D0000133E3609368A36088F31188BFF36F8F93
:1054E0000020EEE72169F2E791F90E1090F90E30F5
:1054F0009942A8BF19466FF07E029142B8BF11468B
:105500008B422EDD03F033F80546CDE900761A48CC
:105510002246414600F000FA0028E1D04FF0200377
:10552000EFF3118683F31288BFF36F8FA068D0B1B9
:10553000236821699C420AD04BB193F90E309942FD
:10554000A8BF19466FF07E039942B8BF194603F011
:105550000EF840B10848314600F042FA6FF00A00F8
:10556000AFE70025D1E7002DF4D186F31188BFF312
:105570006F8FF3E7340F00209715002038B583684C
:10558000044673B31A4A926893422DD1C368012B23
:1055900003D9013BC360002038BD4FF02003EFF377
:1055A000118583F31288BFF36F8F0169806802F061
:1055B000DEFF204603F08CF8A06060B190F90E2069
:1055C00022610022C0F8B02003F023F809482946E0
:1055D00000F006FADFE7E06085F31188BFF36F8F14
:1055E000D9E76FF01500D7E74FF0FF30D4E700BFE1
:1055F000340F00209715002038B504464FF02003E3
:10560000EFF3118583F31288BFF36F8F03F060F817
:1056100050B10022C0F8B02002F0FBFF2946084834
:10562000BDE8384000F0DCB9D4E902329A4218BF34
:105630000133A360022104F1100003F03CFAEDE70E
:105640009715002013B54FF02004EFF3118184F378
:105650001288BFF36F8F846844B1013C846081F38A
:105660001188BFF36F8F002002B010BD52EA03040F
:1056700006D181F31188BFF36F8F6FF00F00F3E74E
:10568000CDE900230246024800F046F9ECE700BFEE
:1056900097150020C3897F2B12D80A4B1B6863B172
:1056A000094B90F90E201B689A4209DB437BDB060D
:1056B00006D1064BC31A18BF012303F0010070473F
:1056C0000023FAE7600F00205C0F00202803002071
:1056D000044BC01A044BC0105843044B01221A5407
:1056E000704700BF98040020ABAAAAAA9715002013
:1056F00070B50E4B0E4C1E7C06EB460304EBC30448
:105700000546204603F052F80A4B002228469A55D7
:10571000FFF7C0FF48B1084B08491A68013A204614
:10572000D317BDE8704000F06DBB70BD340F002092
:105730009804002097150020600F0020D15600002B
:1057400038B50D4D2B4653F8184F9C4200D004B984
:10575000EC68AB6838B95A7BD20604D1A26912B999
:10576000DA897F2A05D89C4202D02046FFF7C0FF85
:1057700023466B6138BD00BF340F002070B590F92F
:105780000D20437B002A014604DA03F07F034373B4
:1057900002F0FCFE4B7B154A63F07F0310464B730F
:1057A00050F8183FD469834208BF002323B9C1E9E8
:1057B00000042160D1610CE091F90E5093F90E6064
:1057C000B5420ED0AE420CDD5868C1E90030016030
:1057D00059609068431A5842BDE870405841FFF73D
:1057E000AFBF9C42E3D01B68E0E700BF340F00204E
:1057F00070B490F90D30427B002B29DBD30627D102
:1058000083692BBB134962F07F0242730A4652F848
:10581000184F944218BF2346CC6923B9C0E900242D
:105820002060C8610CE090F90E5093F90E60B5420B
:105830000AD0AE4208DD5A68C0E9003210605860F4
:1058400070BC0020FFF77CBFA342E7D01B68E4E7F1
:1058500070BC7047340F002008B590F90D20437BD1
:10586000002A014604DA03F07F03437302F08EFE40
:10587000044B9868431A58425841BDE80840FFF766
:105880005FBF00BF340F002070B515461C460646AA
:1058900002F097FEB4F1FF3F08BFB5F1FF3F08D01B
:1058A0002A46234606F118000249BDE8704000F080
:1058B000A9BA70BD9B86000038B54FF02003EFF306
:1058C000118583F31288BFF36F8F104B104A9C68C9
:1058D0001068A04206D1FFF70BFF85F31188BFF3D4
:1058E0006F8F38BD00211B7C11600A4AD35C002BEE
:1058F000F3D02046FFF7CEFE0028EED0637BDB0618
:1059000002D12046FFF73AFF2046E4E7340F00209B
:10591000580F00209715002070B50C480C4D866874
:105920002E600C461146DDE904234FF02006EFF30C
:10593000118586F31288BFF36F8F8068FFF7A4FF8D
:105940002046BDE87040FCF759BF00BF340F00206F
:10595000580F0020F8B504464FF02003EFF31186EE
:1059600083F31288BFF36F8F437BDA0649B219D1F4
:105970008569BDB903F07F03437302F007FE437BE3
:10598000164A817363F07F034373134653F8180F6D
:10599000984218BF0546D0695DB9C4E9003004607B
:1059A000D46111E0A173002086F31188BFF36F8FDB
:1059B000F8BD95F90E70B9420BD08F4209DD6B68C6
:1059C000C4E900531C606C600120FFF7B9FE0120A0
:1059D000EAE7A842E1D02D68DEE700BF340F0020DF
:1059E00049B9EFF3058030B9054B5A699B689A4273
:1059F00001D0FCF703BF81F31188BFF36F8F7047AD
:105A0000340F002010B54FF02002EFF3118482F321
:105A10001288BFF36F8F427B510704D484F311883F
:105A2000BFF36F8F10BD22F004024273FFF7E0FE58
:105A300021460248BDE81040FFF7D2BF981500206C
:105A400070B50446183002F0B1FE4FF02003EFF3BA
:105A5000118683F31288BFF36F8F94F90D20637B57
:105A6000002A05DA03F07F036373204602F08EFDFF
:105A70000B4D637BA86843F010036373031B58420C
:105A80005841FFF75DFE86F31188BFF36F8FAB6857
:105A9000A34203D1BDE8704002F05ABE70BD00BF02
:105AA000340F00204FF02003EFF3118183F31288AD
:105AB000BFF36F8F044B9A68D37B013BD37381F3A1
:105AC0001188BFF36F8F7047340F002010B54FF06F
:105AD0002003EFF3118483F31288BFF36F8F084B19
